{
  "_format": "hh-sol-artifact-1",
  "contractName": "BNBLaunchPad",
  "sourceName": "contracts/LaunchPad/BNBLaunchPad.sol",
  "abi": [
    {
      "inputs": [],
      "stateMutability": "nonpayable",
      "type": "constructor"
    },
    {
      "anonymous": false,
      "inputs": [
        {
          "indexed": false,
          "internalType": "uint8",
          "name": "version",
          "type": "uint8"
        }
      ],
      "name": "Initialized",
      "type": "event"
    },
    {
      "anonymous": false,
      "inputs": [
        {
          "indexed": true,
          "internalType": "address",
          "name": "previousOwner",
          "type": "address"
        },
        {
          "indexed": true,
          "internalType": "address",
          "name": "newOwner",
          "type": "address"
        }
      ],
      "name": "OwnershipTransferred",
      "type": "event"
    },
    {
      "stateMutability": "payable",
      "type": "fallback"
    },
    {
      "inputs": [],
      "name": "BNBFee_",
      "outputs": [
        {
          "internalType": "uint256",
          "name": "",
          "type": "uint256"
        }
      ],
      "stateMutability": "view",
      "type": "function"
    },
    {
      "inputs": [],
      "name": "ERC20Interface",
      "outputs": [
        {
          "internalType": "contract IERC20",
          "name": "",
          "type": "address"
        }
      ],
      "stateMutability": "view",
      "type": "function"
    },
    {
      "inputs": [],
      "name": "LPtokenReleaseDate",
      "outputs": [
        {
          "internalType": "uint256",
          "name": "",
          "type": "uint256"
        }
      ],
      "stateMutability": "view",
      "type": "function"
    },
    {
      "inputs": [],
      "name": "PancakeRouter_Main",
      "outputs": [
        {
          "internalType": "address",
          "name": "",
          "type": "address"
        }
      ],
      "stateMutability": "view",
      "type": "function"
    },
    {
      "inputs": [],
      "name": "PancakeRouter_Test",
      "outputs": [
        {
          "internalType": "address",
          "name": "",
          "type": "address"
        }
      ],
      "stateMutability": "view",
      "type": "function"
    },
    {
      "inputs": [],
      "name": "_liquidityPercent",
      "outputs": [
        {
          "internalType": "uint256",
          "name": "",
          "type": "uint256"
        }
      ],
      "stateMutability": "view",
      "type": "function"
    },
    {
      "inputs": [],
      "name": "_listingRate",
      "outputs": [
        {
          "internalType": "uint256",
          "name": "",
          "type": "uint256"
        }
      ],
      "stateMutability": "view",
      "type": "function"
    },
    {
      "inputs": [],
      "name": "_presaleRate",
      "outputs": [
        {
          "internalType": "uint256",
          "name": "",
          "type": "uint256"
        }
      ],
      "stateMutability": "view",
      "type": "function"
    },
    {
      "inputs": [],
      "name": "_refundType",
      "outputs": [
        {
          "internalType": "uint256",
          "name": "",
          "type": "uint256"
        }
      ],
      "stateMutability": "view",
      "type": "function"
    },
    {
      "inputs": [],
      "name": "_tokensBill",
      "outputs": [
        {
          "internalType": "uint256",
          "name": "",
          "type": "uint256"
        }
      ],
      "stateMutability": "view",
      "type": "function"
    },
    {
      "inputs": [
        {
          "internalType": "address",
          "name": "_address",
          "type": "address"
        }
      ],
      "name": "addWhitelist",
      "outputs": [],
      "stateMutability": "nonpayable",
      "type": "function"
    },
    {
      "inputs": [
        {
          "internalType": "address",
          "name": "",
          "type": "address"
        }
      ],
      "name": "amountBoughtInBNB",
      "outputs": [
        {
          "internalType": "uint256",
          "name": "",
          "type": "uint256"
        }
      ],
      "stateMutability": "view",
      "type": "function"
    },
    {
      "inputs": [],
      "name": "buyTokens",
      "outputs": [],
      "stateMutability": "payable",
      "type": "function"
    },
    {
      "inputs": [],
      "name": "checkBalancesOfContract",
      "outputs": [
        {
          "internalType": "uint256",
          "name": "contractBUSDBalance",
          "type": "uint256"
        },
        {
          "internalType": "uint256",
          "name": "contractTokenBalance",
          "type": "uint256"
        }
      ],
      "stateMutability": "view",
      "type": "function"
    },
    {
      "inputs": [
        {
          "internalType": "address",
          "name": "lpToken",
          "type": "address"
        }
      ],
      "name": "checkDetailsOfLPToken",
      "outputs": [
        {
          "internalType": "uint256",
          "name": "",
          "type": "uint256"
        }
      ],
      "stateMutability": "view",
      "type": "function"
    },
    {
      "inputs": [],
      "name": "claimTokens",
      "outputs": [],
      "stateMutability": "nonpayable",
      "type": "function"
    },
    {
      "inputs": [
        {
          "internalType": "address",
          "name": "",
          "type": "address"
        }
      ],
      "name": "claimableTokenBalance",
      "outputs": [
        {
          "internalType": "uint256",
          "name": "",
          "type": "uint256"
        }
      ],
      "stateMutability": "view",
      "type": "function"
    },
    {
      "inputs": [],
      "name": "finalize",
      "outputs": [],
      "stateMutability": "nonpayable",
      "type": "function"
    },
    {
      "inputs": [
        {
          "internalType": "address",
          "name": "_address",
          "type": "address"
        }
      ],
      "name": "getWhitelist",
      "outputs": [
        {
          "internalType": "bool",
          "name": "",
          "type": "bool"
        }
      ],
      "stateMutability": "view",
      "type": "function"
    },
    {
      "inputs": [],
      "name": "hardCap",
      "outputs": [
        {
          "internalType": "uint256",
          "name": "",
          "type": "uint256"
        }
      ],
      "stateMutability": "view",
      "type": "function"
    },
    {
      "inputs": [],
      "name": "hardCap_wei",
      "outputs": [
        {
          "internalType": "uint256",
          "name": "",
          "type": "uint256"
        }
      ],
      "stateMutability": "view",
      "type": "function"
    },
    {
      "inputs": [
        {
          "internalType": "address",
          "name": "_owner_",
          "type": "address"
        },
        {
          "internalType": "uint256",
          "name": "tokensNeeded_wei",
          "type": "uint256"
        },
        {
          "components": [
            {
              "internalType": "uint256",
              "name": "_saleStartTime",
              "type": "uint256"
            },
            {
              "internalType": "uint256",
              "name": "_saleEndTime",
              "type": "uint256"
            },
            {
              "internalType": "uint256",
              "name": "_minBuyPerUser",
              "type": "uint256"
            },
            {
              "internalType": "uint256",
              "name": "_maxBuyPerUser",
              "type": "uint256"
            },
            {
              "internalType": "address",
              "name": "tokenOnSale",
              "type": "address"
            },
            {
              "internalType": "uint256",
              "name": "hardCap",
              "type": "uint256"
            },
            {
              "internalType": "uint256",
              "name": "softCap",
              "type": "uint256"
            },
            {
              "internalType": "uint256",
              "name": "presaleRate",
              "type": "uint256"
            },
            {
              "internalType": "uint256",
              "name": "listingRate",
              "type": "uint256"
            },
            {
              "internalType": "uint256",
              "name": "liquidityPercent",
              "type": "uint256"
            },
            {
              "internalType": "uint256",
              "name": "_BNBFee",
              "type": "uint256"
            },
            {
              "internalType": "uint256",
              "name": "refundType",
              "type": "uint256"
            }
          ],
          "internalType": "struct IBNBLaunchPad.saleInfo",
          "name": "compressedInfo",
          "type": "tuple"
        },
        {
          "internalType": "uint256",
          "name": "tokensBill",
          "type": "uint256"
        },
        {
          "internalType": "address",
          "name": "_ELaunch",
          "type": "address"
        }
      ],
      "name": "initialize",
      "outputs": [],
      "stateMutability": "nonpayable",
      "type": "function"
    },
    {
      "inputs": [],
      "name": "maxBuyPerUser",
      "outputs": [
        {
          "internalType": "uint256",
          "name": "",
          "type": "uint256"
        }
      ],
      "stateMutability": "view",
      "type": "function"
    },
    {
      "inputs": [],
      "name": "minBuyPerUser",
      "outputs": [
        {
          "internalType": "uint256",
          "name": "",
          "type": "uint256"
        }
      ],
      "stateMutability": "view",
      "type": "function"
    },
    {
      "inputs": [],
      "name": "owner",
      "outputs": [
        {
          "internalType": "address",
          "name": "",
          "type": "address"
        }
      ],
      "stateMutability": "view",
      "type": "function"
    },
    {
      "inputs": [
        {
          "internalType": "uint256",
          "name": "extraTime",
          "type": "uint256"
        }
      ],
      "name": "postponeLPReleaseDate",
      "outputs": [],
      "stateMutability": "nonpayable",
      "type": "function"
    },
    {
      "inputs": [],
      "name": "presaleFinalized",
      "outputs": [
        {
          "internalType": "bool",
          "name": "",
          "type": "bool"
        }
      ],
      "stateMutability": "view",
      "type": "function"
    },
    {
      "inputs": [],
      "name": "projectOwner",
      "outputs": [
        {
          "internalType": "address",
          "name": "",
          "type": "address"
        }
      ],
      "stateMutability": "view",
      "type": "function"
    },
    {
      "inputs": [
        {
          "internalType": "address",
          "name": "lpToken",
          "type": "address"
        }
      ],
      "name": "redeemLPToken",
      "outputs": [],
      "stateMutability": "nonpayable",
      "type": "function"
    },
    {
      "inputs": [],
      "name": "renounceOwnership",
      "outputs": [],
      "stateMutability": "nonpayable",
      "type": "function"
    },
    {
      "inputs": [],
      "name": "saleEndTime",
      "outputs": [
        {
          "internalType": "uint256",
          "name": "",
          "type": "uint256"
        }
      ],
      "stateMutability": "view",
      "type": "function"
    },
    {
      "inputs": [],
      "name": "saleStartTime",
      "outputs": [
        {
          "internalType": "uint256",
          "name": "",
          "type": "uint256"
        }
      ],
      "stateMutability": "view",
      "type": "function"
    },
    {
      "inputs": [],
      "name": "saleState",
      "outputs": [
        {
          "internalType": "enum BNBLaunchPad.buyType",
          "name": "",
          "type": "uint8"
        }
      ],
      "stateMutability": "view",
      "type": "function"
    },
    {
      "inputs": [],
      "name": "setDefaultLPTokenReleaseDate",
      "outputs": [],
      "stateMutability": "nonpayable",
      "type": "function"
    },
    {
      "inputs": [
        {
          "internalType": "uint256",
          "name": "choice",
          "type": "uint256"
        }
      ],
      "name": "setSaleType",
      "outputs": [],
      "stateMutability": "nonpayable",
      "type": "function"
    },
    {
      "inputs": [],
      "name": "softCap",
      "outputs": [
        {
          "internalType": "uint256",
          "name": "",
          "type": "uint256"
        }
      ],
      "stateMutability": "view",
      "type": "function"
    },
    {
      "inputs": [],
      "name": "softCap_wei",
      "outputs": [
        {
          "internalType": "uint256",
          "name": "",
          "type": "uint256"
        }
      ],
      "stateMutability": "view",
      "type": "function"
    },
    {
      "inputs": [],
      "name": "tokenAddress",
      "outputs": [
        {
          "internalType": "address",
          "name": "",
          "type": "address"
        }
      ],
      "stateMutability": "view",
      "type": "function"
    },
    {
      "inputs": [],
      "name": "totalBNBReceivedInAllTier",
      "outputs": [
        {
          "internalType": "uint256",
          "name": "",
          "type": "uint256"
        }
      ],
      "stateMutability": "view",
      "type": "function"
    },
    {
      "inputs": [],
      "name": "totalTokensBought",
      "outputs": [
        {
          "internalType": "uint256",
          "name": "",
          "type": "uint256"
        }
      ],
      "stateMutability": "view",
      "type": "function"
    },
    {
      "inputs": [],
      "name": "totalTokensToCreatePresale",
      "outputs": [
        {
          "internalType": "uint256",
          "name": "",
          "type": "uint256"
        }
      ],
      "stateMutability": "view",
      "type": "function"
    },
    {
      "inputs": [],
      "name": "totalparticipants",
      "outputs": [
        {
          "internalType": "uint256",
          "name": "",
          "type": "uint256"
        }
      ],
      "stateMutability": "view",
      "type": "function"
    },
    {
      "inputs": [
        {
          "internalType": "address",
          "name": "newOwner",
          "type": "address"
        }
      ],
      "name": "transferOwnership",
      "outputs": [],
      "stateMutability": "nonpayable",
      "type": "function"
    },
    {
      "inputs": [],
      "name": "uniswapV2Router",
      "outputs": [
        {
          "internalType": "contract IUniswapV2Router02",
          "name": "",
          "type": "address"
        }
      ],
      "stateMutability": "view",
      "type": "function"
    },
    {
      "inputs": [],
      "name": "withdrawContribution",
      "outputs": [],
      "stateMutability": "nonpayable",
      "type": "function"
    },
    {
      "stateMutability": "payable",
      "type": "receive"
    }
  ],
  "bytecode": "0x60806040523480156200001157600080fd5b506200001d336200002d565b620000276200007d565b620001c0565b600080546001600160a01b038381166001600160a01b0319831681178455604051919092169283917f8be0079c531659141344cd1fd0a4f28419497f9722a3daafe3b4186f6b6457e09190a35050565b6200008960ff6200008c565b50565b60008054600160a81b900460ff161562000127578160ff166001148015620000c75750620000c530620001b160201b620018621760201c565b155b6200011f5760405162461bcd60e51b815260206004820152602e60248201526000805160206200274883398151915260448201526d191e481a5b9a5d1a585b1a5e995960921b60648201526084015b60405180910390fd5b506000919050565b60005460ff808416600160a01b90920416106200018d5760405162461bcd60e51b815260206004820152602e60248201526000805160206200274883398151915260448201526d191e481a5b9a5d1a585b1a5e995960921b606482015260840162000116565b506000805460ff909216600160a01b0260ff60a01b19909216919091179055600190565b6001600160a01b03163b151590565b61257880620001d06000396000f3fe6080604052600436106102765760003560e01c80637e929f0d1161014f578063a4475ce4116100c1578063dd636fd91161007a578063dd636fd9146106f4578063de284b3a1461070a578063ed338ff114610720578063f2fde38b14610736578063f80f5dd514610756578063fb86a4041461077657610285565b8063a4475ce41461065e578063a8ed02c91461067e578063baa9e531146106a8578063bc76caec146106be578063c77a435e146106de578063d0febe4c1461028557610285565b806394bf96ac1161011357806394bf96ac1461059e5780639706a83e146105b35780639d76ea58146105db5780639edc6d60146105fb578063a375da1d14610628578063a3c3d84d1461063e57610285565b80637e929f0d146105285780638a343dc71461053e5780638da5cb5b14610554578063906a26e014610572578063919e3b181461058857610285565b8063383f5fb2116101e85780634adcd32a116101ac5780634adcd32a146104815780634bb278f3146104a1578063603f4d52146104b6578063609f546b146104e35780636d498093146104f9578063715018a61461051357610285565b8063383f5fb2146103e95780633d0d9c5314610416578063408fc8a91461043657806345f8f0df1461045657806348c54b9d1461046c57610285565b806316007d291161023a57806316007d29146103375780631694505e1461034d5780631bbc4b831461036d5780631cbaee2d1461038d5780632362144d146103a357806330edc0f5146103b957610285565b8063010998851461028d57806308b3110c146102b65780630d616d20146102cc578063120597b9146102e157806312e409c51461032157610285565b366102855761028361078c565b005b61028361078c565b34801561029957600080fd5b506102a360085481565b6040519081526020015b60405180910390f35b3480156102c257600080fd5b506102a3600e5481565b3480156102d857600080fd5b50610283610c19565b3480156102ed57600080fd5b506103097305ff2b0db69458a0750badebc4f9e13add608c7f81565b6040516001600160a01b0390911681526020016102ad565b34801561032d57600080fd5b506102a360155481565b34801561034357600080fd5b506102a3600c5481565b34801561035957600080fd5b50601954610309906001600160a01b031681565b34801561037957600080fd5b50601754610309906001600160a01b031681565b34801561039957600080fd5b506102a360055481565b3480156103af57600080fd5b506102a360075481565b3480156103c557600080fd5b506103d96103d4366004612185565b610d21565b60405190151581526020016102ad565b3480156103f557600080fd5b506102a3610404366004612185565b601a6020526000908152604090205481565b34801561042257600080fd5b506102a3610431366004612185565b610d91565b34801561044257600080fd5b506102836104513660046121a0565b610e11565b34801561046257600080fd5b506102a360105481565b34801561047857600080fd5b50610283611006565b34801561048d57600080fd5b5061028361049c3660046122b7565b6110b0565b3480156104ad57600080fd5b50610283611164565b3480156104c257600080fd5b50601d546104d69062010000900460ff1681565b6040516102ad9190612333565b3480156104ef57600080fd5b506102a3600d5481565b34801561050557600080fd5b50601d546103d99060ff1681565b34801561051f57600080fd5b50610283611367565b34801561053457600080fd5b506102a360045481565b34801561054a57600080fd5b506102a3600f5481565b34801561056057600080fd5b506000546001600160a01b0316610309565b34801561057e57600080fd5b506102a360035481565b34801561059457600080fd5b506102a360025481565b3480156105aa57600080fd5b5061028361139d565b3480156105bf57600080fd5b5061030973d99d1c33f9fc3444f8101754abc46c52416550d181565b3480156105e757600080fd5b50601854610309906001600160a01b031681565b34801561060757600080fd5b506102a3610616366004612185565b601c6020526000908152604090205481565b34801561063457600080fd5b506102a3600a5481565b34801561064a57600080fd5b506102836106593660046122b7565b611419565b34801561066a57600080fd5b50601354610309906001600160a01b031681565b34801561068a57600080fd5b5061069361145d565b604080519283526020830191909152016102ad565b3480156106b457600080fd5b506102a360095481565b3480156106ca57600080fd5b506102836106d9366004612185565b6114ec565b3480156106ea57600080fd5b506102a3600b5481565b34801561070057600080fd5b506102a360115481565b34801561071657600080fd5b506102a360145481565b34801561072c57600080fd5b506102a360065481565b34801561074257600080fd5b50610283610751366004612185565b611706565b34801561076257600080fd5b50610283610771366004612185565b61179e565b34801561078257600080fd5b506102a360015481565b60055434904210156107e55760405162461bcd60e51b815260206004820152601d60248201527f5468652073616c6520686173206e6f742073746172746564207965742000000060448201526064015b60405180910390fd5b60065442111561082c5760405162461bcd60e51b8152602060048201526012602482015271151a19481cd85b19481a5cc818db1bdcd95960721b60448201526064016107dc565b6002548160075461083d9190612449565b11156108c05760405162461bcd60e51b815260206004820152604660248201527f627579546f6b656e733a2070757263686173652063616e6e6f7420657863656560448201527f6420686172644361702e2054727920427579696e67206120736d616c6c657220606482015265185b5bdd5b9d60d21b608482015260a4016107dc565b6001601d5462010000900460ff1660018111156108df576108df612516565b1415610ae5576108ee33610d21565b15610a9d57336000908152601a602052604081208054839290610912908490612449565b9091555050601554336000908152601a602052604090205410156109665760405162461bcd60e51b815260206004820152600b60248201526a0313abcaa37b5b2b7399d160ad1b60448201526064016107dc565b601454336000908152601a602052604090205411156109e25760405162461bcd60e51b815260206004820152603260248201527f627579546f6b656e733a20596f752061726520696e76657374696e67206d6f7260448201527165207468616e20796f7572206c696d69742160701b60648201526084016107dc565b80600760008282546109f49190612449565b9091555060009050610a0582611871565b336000908152601c6020526040902054909150610a229082611881565b336000908152601c602052604081209190915560098054839290610a47908490612449565b9091555050336000908152601b602052604090205460ff16610a9957336000908152601b60205260408120805460ff191660019081179091556008805491929091610a93908490612449565b90915550505b5050565b60405162461bcd60e51b815260206004820152601860248201527f4e6f20612077686974656c69737465642061646472657373000000000000000060448201526064016107dc565b6000601d5462010000900460ff166001811115610b0457610b04612516565b1415610c1657336000908152601a602052604081208054839290610b29908490612449565b9091555050601554336000908152601a60205260409020541015610b8f5760405162461bcd60e51b815260206004820152601f60248201527f796f75722070757263686173696e6720506f77657220697320736f204c6f770060448201526064016107dc565b601454336000908152601a602052604090205411156109e25760405162461bcd60e51b815260206004820152603860248201527f627579546f6b656e733a596f752061726520696e76657374696e67206d6f726560448201527f207468616e20796f757220746965722d31206c696d697421000000000000000060648201526084016107dc565b50565b600654421015610c845760405162461bcd60e51b815260206004820152603060248201527f7769746864726177436f6e747269627574696f6e3a20706c656173652077616960448201526f742074696c6c2073616c6520656e647360801b60648201526084016107dc565b60045460075410610ce55760405162461bcd60e51b815260206004820152602560248201527f43616e6e6f742077697468647261772e2053616c65204578636565647320736f604482015264066744361760dc1b60648201526084016107dc565b336000818152601a602052604080822054905190929183156108fc02918491818181858888f19350505050158015610a99573d6000803e3d6000fd5b60165460009081905b80821015610d8757600060168381548110610d4757610d4761252c565b6000918252602090912001546001600160a01b0390811691508516811415610d7457506001949350505050565b5081610d7f816124e5565b925050610d2a565b5060009392505050565b6040516370a0823160e01b81523060048201526000906001600160a01b038316906370a082319060240160206040518083038186803b158015610dd357600080fd5b505afa158015610de7573d6000803e3d6000fd5b505050506040513d601f19601f82011682018060405250810190610e0b91906122d0565b92915050565b6000610e1d6001611894565b90508015610e39576000805460ff60a81b1916600160a81b1790555b60a08401516001819055610e5590670de0b6b3a7640000612483565b60025560c08401516003819055610e7490670de0b6b3a7640000612483565b60045583516005556020840151600655601380546001600160a01b038881166001600160a01b0319928316811790935560408701516015556060870151601455600a88905560128054918616919092161790556010849055601d805462ff00001916905560e0850151600c55610100850151600d55610120850151600e55610140850151600f55610160850151601155610f0d90611934565b60808401516001600160a01b0316610f675760405162461bcd60e51b815260206004820152601c60248201527f546f6b656e20416464726573732063616e6e6f74206265205a65726f0000000060448201526064016107dc565b6080840151601880546001600160a01b039092166001600160a01b0319928316811790915560178054831690911790556019805490911673d99d1c33f9fc3444f8101754abc46c52416550d11790558015610ffe576000805460ff60a81b19169055604051600181527f7f26b83ff96e1f2b6a682f133852f6798a09c465da95921460cefb38474024989060200160405180910390a15b505050505050565b601d5460ff1615156001146110835760405162461bcd60e51b815260206004820152603d60248201527f636c61696d546f6b656e733a20557365722063616e6e6f7420636c61696d207460448201527f6f6b656e73732074696c6c2073616c652069732066696e616c697a656400000060648201526084016107dc565b336000818152601c6020526040812080549190556017549091610c16916001600160a01b03169083611984565b6000546001600160a01b031633146110da5760405162461bcd60e51b81526004016107dc906123dc565b8015806110e75750806001145b6111335760405162461bcd60e51b815260206004820152601960248201527f63686f6963652063616e206f6e6c792062652030206f7220310000000000000060448201526064016107dc565b806111475750601d805462ff000019169055565b8060011415610c165750601d805462ff0000191662010000179055565b6000546001600160a01b0316331461118e5760405162461bcd60e51b81526004016107dc906123dc565b601d5460ff16156111ed5760405162461bcd60e51b815260206004820152602360248201527f66696e616c697a653a2070726573616c6520616c72656164792066696e616c696044820152621e995960ea1b60648201526084016107dc565b600254600754148061120157506006544210155b6112695760405162461bcd60e51b815260206004820152603360248201527f66696e616c697a653a2048617264636170206e6f742072656163686564206f72604482015272081cd85b19481a185cc81b9bdd08195b991959606a1b60648201526084016107dc565b60045460075410156112e35760405162461bcd60e51b815260206004820152603e60248201527f66696e616c697a653a2050726f6a6563742063616e6e6f742070726f6365656460448201527f2073696e636520736f667463617020776173206e6f742072656163686564000060648201526084016107dc565b6000806000806112f16119db565b935093509350935061130281611b72565b600061130e8585611c45565b6013546040519192506001600160a01b03169084156108fc029085906000818181858888f19350505050158015611349573d6000803e3d6000fd5b5061135381611d29565b5050601d805460ff19166001179055505050565b6000546001600160a01b031633146113915760405162461bcd60e51b81526004016107dc906123dc565b61139b6000611934565b565b601d54610100900460ff16156113f55760405162461bcd60e51b815260206004820181905260248201527f44656661756c742072656c65617365206461746520616c72656164792073657460448201526064016107dc565b6006546114059062069780612449565b600b55601d805461ff001916610100179055565b6000546001600160a01b031633146114435760405162461bcd60e51b81526004016107dc906123dc565b80600b60008282546114559190612449565b909155505050565b6017546040516370a0823160e01b81523060048201526000918291479183916001600160a01b03909116906370a082319060240160206040518083038186803b1580156114a957600080fd5b505afa1580156114bd573d6000803e3d6000fd5b505050506040513d601f19601f820116820180604052508101906114e191906122d0565b919491935090915050565b6000546001600160a01b031633146115165760405162461bcd60e51b81526004016107dc906123dc565b601d5460ff1615156001146115935760405162461bcd60e51b815260206004820152603f60248201527f72656465656d4c50546f6b656e3a20557365722063616e6e6f7420726564656560448201527f6d4c50546f6b656e2074696c6c2073616c652069732066696e616c697a65640060648201526084016107dc565b600b544210156115fe5760405162461bcd60e51b815260206004820152603060248201527f72656465656d4c50546f6b656e3a20506c6561736520776169742074696c6c2060448201526f7468652072656c65617365206461746560801b60648201526084016107dc565b6040516370a0823160e01b815230600482015233906000906001600160a01b038416906370a082319060240160206040518083038186803b15801561164257600080fd5b505afa158015611656573d6000803e3d6000fd5b505050506040513d601f19601f8201168201806040525081019061167a91906122d0565b60405163a9059cbb60e01b81526001600160a01b038481166004830152602482018390529192509084169063a9059cbb90604401602060405180830381600087803b1580156116c857600080fd5b505af11580156116dc573d6000803e3d6000fd5b505050506040513d601f19601f820116820180604052508101906117009190612295565b50505050565b6000546001600160a01b031633146117305760405162461bcd60e51b81526004016107dc906123dc565b6001600160a01b0381166117955760405162461bcd60e51b815260206004820152602660248201527f4f776e61626c653a206e6577206f776e657220697320746865207a65726f206160448201526564647265737360d01b60648201526084016107dc565b610c1681611934565b6000546001600160a01b031633146117c85760405162461bcd60e51b81526004016107dc906123dc565b6001600160a01b0381166118105760405162461bcd60e51b815260206004820152600f60248201526e496e76616c6964206164647265737360881b60448201526064016107dc565b601680546001810182556000919091527fd833147d7dc355ba459fc788f669e58cfaf9dc25ddcd0702e87d69c7b51242890180546001600160a01b0319166001600160a01b0392909216919091179055565b6001600160a01b03163b151590565b6000600c5482610e0b9190612483565b600061188d8284612449565b9392505050565b60008054600160a81b900460ff16156118dd578160ff1660011480156118b95750303b155b6118d55760405162461bcd60e51b81526004016107dc9061238e565b506000919050565b60005460ff808416600160a01b909204161061190b5760405162461bcd60e51b81526004016107dc9061238e565b506000805460ff909216600160a01b0260ff60a01b19909216919091179055600190565b919050565b600080546001600160a01b038381166001600160a01b0319831681178455604051919092169283917f8be0079c531659141344cd1fd0a4f28419497f9722a3daafe3b4186f6b6457e09190a35050565b604080516001600160a01b038416602482015260448082018490528251808303909101815260649091019091526020810180516001600160e01b031663a9059cbb60e01b1790526119d6908490611e53565b505050565b600080600080600f5460041415611abc576000620f42406007546119ff9190612461565b90506000600e54600d54611a139190612483565b611a1e836060612483565b611a289190612483565b611a33906064612483565b90506000600e5483611a459190612483565b611a50906060612483565b611a5b906064612483565b90506000600e546064611a6e91906124a2565b611a789085612483565b611a83906060612483565b611a8e906064612483565b90506000611a9c8383612449565b600754611aa991906124a2565b9398509196509450909250611b6c915050565b600f5460021415611b6c576000620f4240600754611ada9190612461565b90506000600e54600d54611aee9190612483565b611afa836103d9612483565b611b049190612483565b611b0f90600a612483565b90506000600e5483611b219190612483565b611b2d906103d9612483565b611b3890600a612483565b90506000600e546064611b4b91906124a2565b611b559085612483565b611b61906103d9612483565b611a8e90600a612483565b90919293565b6012546040516001600160a01b039091169082156108fc029083906000818181858888f19350505050158015611bac573d6000803e3d6000fd5b50600f5460021415610c165760175460125460105460405163a9059cbb60e01b81526001600160a01b039283166004820152602481019190915291169063a9059cbb906044015b602060405180830381600087803b158015611c0d57600080fd5b505af1158015611c21573d6000803e3d6000fd5b505050506040513d601f19601f82011682018060405250810190610a999190612295565b6000611c4f611f25565b6019546018546000916001600160a01b039081169163f305d7199186911687858030611c7d4261012c612449565b60405160e089901b6001600160e01b03191681526001600160a01b039687166004820152602481019590955260448501939093526064840191909152909216608482015260a481019190915260c4016060604051808303818588803b158015611ce557600080fd5b505af1158015611cf9573d6000803e3d6000fd5b50505050506040513d601f19601f82011682018060405250810190611d1e91906122e9565b509095945050505050565b600060105482600954611d3c9190612449565b611d469190612449565b600a54611d5391906124a2565b905060115460001415611de85760175460135460405163a9059cbb60e01b81526001600160a01b0391821660048201526024810184905291169063a9059cbb90604401602060405180830381600087803b158015611db057600080fd5b505af1158015611dc4573d6000803e3d6000fd5b505050506040513d601f19601f820116820180604052508101906119d69190612295565b60115460011415610a9957601854604051630c2c3d6360e31b8152306004820152602481018390526001600160a01b0390911690636161eb1890604401600060405180830381600087803b158015611e3f57600080fd5b505af1158015610ffe573d6000803e3d6000fd5b6000611ea8826040518060400160405280602081526020017f5361666545524332303a206c6f772d6c6576656c2063616c6c206661696c6564815250856001600160a01b0316611fed9092919063ffffffff16565b8051909150156119d65780806020019051810190611ec69190612295565b6119d65760405162461bcd60e51b815260206004820152602a60248201527f5361666545524332303a204552433230206f7065726174696f6e20646964206e6044820152691bdd081cdd58d8d9595960b21b60648201526084016107dc565b6018546040516370a0823160e01b81523060048201526000916001600160a01b0316906370a082319060240160206040518083038186803b158015611f6957600080fd5b505afa158015611f7d573d6000803e3d6000fd5b505050506040513d601f19601f82011682018060405250810190611fa191906122d0565b60185460405163095ea7b360e01b815273d99d1c33f9fc3444f8101754abc46c52416550d16004820152602481018390529192506001600160a01b03169063095ea7b390604401611bf3565b6060611ffc8484600085612004565b949350505050565b6060824710156120655760405162461bcd60e51b815260206004820152602660248201527f416464726573733a20696e73756666696369656e742062616c616e636520666f6044820152651c8818d85b1b60d21b60648201526084016107dc565b6001600160a01b0385163b6120bc5760405162461bcd60e51b815260206004820152601d60248201527f416464726573733a2063616c6c20746f206e6f6e2d636f6e747261637400000060448201526064016107dc565b600080866001600160a01b031685876040516120d89190612317565b60006040518083038185875af1925050503d8060008114612115576040519150601f19603f3d011682016040523d82523d6000602084013e61211a565b606091505b509150915061212a828286612135565b979650505050505050565b6060831561214457508161188d565b8251156121545782518084602001fd5b8160405162461bcd60e51b81526004016107dc919061235b565b80356001600160a01b038116811461192f57600080fd5b60006020828403121561219757600080fd5b61188d8261216e565b60008060008060008587036102008112156121ba57600080fd5b6121c38761216e565b95506020870135945061018080603f19830112156121e057600080fd5b6121e8612411565b915060408801358252606088013560208301526080880135604083015260a0880135606083015261221b60c0890161216e565b608083015260e088013560a08301526101008089013560c0840152610120808a013560e0850152610140808b0135838601526101609250828b013582860152838b01358186015250506101a0890135818401525050809350506101c086013591506122896101e0870161216e565b90509295509295909350565b6000602082840312156122a757600080fd5b8151801515811461188d57600080fd5b6000602082840312156122c957600080fd5b5035919050565b6000602082840312156122e257600080fd5b5051919050565b6000806000606084860312156122fe57600080fd5b8351925060208401519150604084015190509250925092565b600082516123298184602087016124b9565b9190910192915050565b602081016002831061235557634e487b7160e01b600052602160045260246000fd5b91905290565b602081526000825180602084015261237a8160408501602087016124b9565b601f01601f19169190910160400192915050565b6020808252602e908201527f496e697469616c697a61626c653a20636f6e747261637420697320616c72656160408201526d191e481a5b9a5d1a585b1a5e995960921b606082015260800190565b6020808252818101527f4f776e61626c653a2063616c6c6572206973206e6f7420746865206f776e6572604082015260600190565b604051610180810167ffffffffffffffff8111828210171561244357634e487b7160e01b600052604160045260246000fd5b60405290565b6000821982111561245c5761245c612500565b500190565b60008261247e57634e487b7160e01b600052601260045260246000fd5b500490565b600081600019048311821515161561249d5761249d612500565b500290565b6000828210156124b4576124b4612500565b500390565b60005b838110156124d45781810151838201526020016124bc565b838111156117005750506000910152565b60006000198214156124f9576124f9612500565b5060010190565b634e487b7160e01b600052601160045260246000fd5b634e487b7160e01b600052602160045260246000fd5b634e487b7160e01b600052603260045260246000fdfea264697066735822122069f602b1679bfd4499cf7a37bc9df1d9d78dd7134cd85adcc50b461b5ed97b3764736f6c63430008070033496e697469616c697a61626c653a20636f6e747261637420697320616c726561",
  "linkReferences": {},
  "deployedLinkReferences": {}
}