{
  "_format": "hh-sol-artifact-1",
  "contractName": "BNBsoftLaunch",
  "sourceName": "contracts/LaunchPad/BNBsoftLaunch.sol",
  "abi": [
    {
      "inputs": [],
      "stateMutability": "nonpayable",
      "type": "constructor"
    },
    {
      "anonymous": false,
      "inputs": [
        {
          "indexed": false,
          "internalType": "uint8",
          "name": "version",
          "type": "uint8"
        }
      ],
      "name": "Initialized",
      "type": "event"
    },
    {
      "anonymous": false,
      "inputs": [
        {
          "indexed": true,
          "internalType": "address",
          "name": "previousOwner",
          "type": "address"
        },
        {
          "indexed": true,
          "internalType": "address",
          "name": "newOwner",
          "type": "address"
        }
      ],
      "name": "OwnershipTransferred",
      "type": "event"
    },
    {
      "stateMutability": "payable",
      "type": "fallback"
    },
    {
      "inputs": [],
      "name": "BNBFee_",
      "outputs": [
        {
          "internalType": "uint256",
          "name": "",
          "type": "uint256"
        }
      ],
      "stateMutability": "view",
      "type": "function"
    },
    {
      "inputs": [],
      "name": "ERC20Interface",
      "outputs": [
        {
          "internalType": "contract IERC20",
          "name": "",
          "type": "address"
        }
      ],
      "stateMutability": "view",
      "type": "function"
    },
    {
      "inputs": [],
      "name": "LPtokenReleaseDate",
      "outputs": [
        {
          "internalType": "uint256",
          "name": "",
          "type": "uint256"
        }
      ],
      "stateMutability": "view",
      "type": "function"
    },
    {
      "inputs": [],
      "name": "PancakeRouter_Main",
      "outputs": [
        {
          "internalType": "address",
          "name": "",
          "type": "address"
        }
      ],
      "stateMutability": "view",
      "type": "function"
    },
    {
      "inputs": [],
      "name": "PancakeRouter_Test",
      "outputs": [
        {
          "internalType": "address",
          "name": "",
          "type": "address"
        }
      ],
      "stateMutability": "view",
      "type": "function"
    },
    {
      "inputs": [],
      "name": "_liquidityPercent",
      "outputs": [
        {
          "internalType": "uint256",
          "name": "",
          "type": "uint256"
        }
      ],
      "stateMutability": "view",
      "type": "function"
    },
    {
      "inputs": [],
      "name": "_listingRate",
      "outputs": [
        {
          "internalType": "uint256",
          "name": "",
          "type": "uint256"
        }
      ],
      "stateMutability": "view",
      "type": "function"
    },
    {
      "inputs": [],
      "name": "_presaleRate",
      "outputs": [
        {
          "internalType": "uint256",
          "name": "",
          "type": "uint256"
        }
      ],
      "stateMutability": "view",
      "type": "function"
    },
    {
      "inputs": [],
      "name": "_refundType",
      "outputs": [
        {
          "internalType": "uint256",
          "name": "",
          "type": "uint256"
        }
      ],
      "stateMutability": "view",
      "type": "function"
    },
    {
      "inputs": [],
      "name": "_tokensBill",
      "outputs": [
        {
          "internalType": "uint256",
          "name": "",
          "type": "uint256"
        }
      ],
      "stateMutability": "view",
      "type": "function"
    },
    {
      "inputs": [
        {
          "internalType": "address",
          "name": "_address",
          "type": "address"
        }
      ],
      "name": "addWhitelist",
      "outputs": [],
      "stateMutability": "nonpayable",
      "type": "function"
    },
    {
      "inputs": [
        {
          "internalType": "address",
          "name": "",
          "type": "address"
        }
      ],
      "name": "amountBoughtInBNB",
      "outputs": [
        {
          "internalType": "uint256",
          "name": "",
          "type": "uint256"
        }
      ],
      "stateMutability": "view",
      "type": "function"
    },
    {
      "inputs": [],
      "name": "buyTokens",
      "outputs": [],
      "stateMutability": "payable",
      "type": "function"
    },
    {
      "inputs": [],
      "name": "calculateFairlaunchRate",
      "outputs": [
        {
          "internalType": "uint256",
          "name": "",
          "type": "uint256"
        }
      ],
      "stateMutability": "view",
      "type": "function"
    },
    {
      "inputs": [],
      "name": "checkBalancesOfContract",
      "outputs": [
        {
          "internalType": "uint256",
          "name": "contractBUSDBalance",
          "type": "uint256"
        },
        {
          "internalType": "uint256",
          "name": "contractTokenBalance",
          "type": "uint256"
        }
      ],
      "stateMutability": "view",
      "type": "function"
    },
    {
      "inputs": [
        {
          "internalType": "address",
          "name": "lpToken",
          "type": "address"
        }
      ],
      "name": "checkDetailsOfLPToken",
      "outputs": [
        {
          "internalType": "uint256",
          "name": "",
          "type": "uint256"
        }
      ],
      "stateMutability": "view",
      "type": "function"
    },
    {
      "inputs": [],
      "name": "claimTokens",
      "outputs": [],
      "stateMutability": "nonpayable",
      "type": "function"
    },
    {
      "inputs": [
        {
          "internalType": "address",
          "name": "",
          "type": "address"
        }
      ],
      "name": "claimableTokenBalance",
      "outputs": [
        {
          "internalType": "uint256",
          "name": "",
          "type": "uint256"
        }
      ],
      "stateMutability": "view",
      "type": "function"
    },
    {
      "inputs": [],
      "name": "finalize",
      "outputs": [],
      "stateMutability": "nonpayable",
      "type": "function"
    },
    {
      "inputs": [
        {
          "internalType": "address",
          "name": "_address",
          "type": "address"
        }
      ],
      "name": "getWhitelist",
      "outputs": [
        {
          "internalType": "bool",
          "name": "",
          "type": "bool"
        }
      ],
      "stateMutability": "view",
      "type": "function"
    },
    {
      "inputs": [
        {
          "internalType": "address",
          "name": "_owner_",
          "type": "address"
        },
        {
          "internalType": "uint256",
          "name": "tokensNeeded_wei",
          "type": "uint256"
        },
        {
          "components": [
            {
              "internalType": "uint256",
              "name": "_saleStartTime",
              "type": "uint256"
            },
            {
              "internalType": "uint256",
              "name": "_saleEndTime",
              "type": "uint256"
            },
            {
              "internalType": "address",
              "name": "tokenOnSale",
              "type": "address"
            },
            {
              "internalType": "uint256",
              "name": "softCap",
              "type": "uint256"
            },
            {
              "internalType": "uint256",
              "name": "liquidityPercent",
              "type": "uint256"
            },
            {
              "internalType": "uint256",
              "name": "_BNBFee",
              "type": "uint256"
            },
            {
              "internalType": "uint256",
              "name": "refundType",
              "type": "uint256"
            },
            {
              "internalType": "uint256",
              "name": "liquidityReleaseDate",
              "type": "uint256"
            },
            {
              "internalType": "uint256",
              "name": "minBuyPerUser",
              "type": "uint256"
            },
            {
              "internalType": "uint256",
              "name": "maxBuyPerUser",
              "type": "uint256"
            },
            {
              "internalType": "uint256",
              "name": "sumOfTokensOnSale",
              "type": "uint256"
            }
          ],
          "internalType": "struct IBNBsoftLaunch.saleInfo",
          "name": "compressedInfo",
          "type": "tuple"
        },
        {
          "internalType": "uint256",
          "name": "tokensBill",
          "type": "uint256"
        },
        {
          "internalType": "address",
          "name": "_ELaunch",
          "type": "address"
        }
      ],
      "name": "initialize",
      "outputs": [],
      "stateMutability": "nonpayable",
      "type": "function"
    },
    {
      "inputs": [],
      "name": "maxBuyPerUser",
      "outputs": [
        {
          "internalType": "uint256",
          "name": "",
          "type": "uint256"
        }
      ],
      "stateMutability": "view",
      "type": "function"
    },
    {
      "inputs": [],
      "name": "minBuyPerUser",
      "outputs": [
        {
          "internalType": "uint256",
          "name": "",
          "type": "uint256"
        }
      ],
      "stateMutability": "view",
      "type": "function"
    },
    {
      "inputs": [],
      "name": "owner",
      "outputs": [
        {
          "internalType": "address",
          "name": "",
          "type": "address"
        }
      ],
      "stateMutability": "view",
      "type": "function"
    },
    {
      "inputs": [
        {
          "internalType": "uint256",
          "name": "extraTime",
          "type": "uint256"
        }
      ],
      "name": "postponeLPReleaseDate",
      "outputs": [],
      "stateMutability": "nonpayable",
      "type": "function"
    },
    {
      "inputs": [],
      "name": "presaleFinalized",
      "outputs": [
        {
          "internalType": "bool",
          "name": "",
          "type": "bool"
        }
      ],
      "stateMutability": "view",
      "type": "function"
    },
    {
      "inputs": [],
      "name": "projectOwner",
      "outputs": [
        {
          "internalType": "address",
          "name": "",
          "type": "address"
        }
      ],
      "stateMutability": "view",
      "type": "function"
    },
    {
      "inputs": [
        {
          "internalType": "address",
          "name": "lpToken",
          "type": "address"
        }
      ],
      "name": "redeemLPToken",
      "outputs": [],
      "stateMutability": "nonpayable",
      "type": "function"
    },
    {
      "inputs": [],
      "name": "renounceOwnership",
      "outputs": [],
      "stateMutability": "nonpayable",
      "type": "function"
    },
    {
      "inputs": [],
      "name": "saleEndTime",
      "outputs": [
        {
          "internalType": "uint256",
          "name": "",
          "type": "uint256"
        }
      ],
      "stateMutability": "view",
      "type": "function"
    },
    {
      "inputs": [],
      "name": "saleStartTime",
      "outputs": [
        {
          "internalType": "uint256",
          "name": "",
          "type": "uint256"
        }
      ],
      "stateMutability": "view",
      "type": "function"
    },
    {
      "inputs": [],
      "name": "saleState",
      "outputs": [
        {
          "internalType": "enum BNBsoftLaunch.buyType",
          "name": "",
          "type": "uint8"
        }
      ],
      "stateMutability": "view",
      "type": "function"
    },
    {
      "inputs": [
        {
          "internalType": "uint256",
          "name": "choice",
          "type": "uint256"
        }
      ],
      "name": "setSaleType",
      "outputs": [],
      "stateMutability": "nonpayable",
      "type": "function"
    },
    {
      "inputs": [],
      "name": "softCap",
      "outputs": [
        {
          "internalType": "uint256",
          "name": "",
          "type": "uint256"
        }
      ],
      "stateMutability": "view",
      "type": "function"
    },
    {
      "inputs": [],
      "name": "softCap_wei",
      "outputs": [
        {
          "internalType": "uint256",
          "name": "",
          "type": "uint256"
        }
      ],
      "stateMutability": "view",
      "type": "function"
    },
    {
      "inputs": [],
      "name": "tokenAddress",
      "outputs": [
        {
          "internalType": "address",
          "name": "",
          "type": "address"
        }
      ],
      "stateMutability": "view",
      "type": "function"
    },
    {
      "inputs": [],
      "name": "totalBNBReceivedInAllTier",
      "outputs": [
        {
          "internalType": "uint256",
          "name": "",
          "type": "uint256"
        }
      ],
      "stateMutability": "view",
      "type": "function"
    },
    {
      "inputs": [],
      "name": "totalTokensBeingSold",
      "outputs": [
        {
          "internalType": "uint256",
          "name": "",
          "type": "uint256"
        }
      ],
      "stateMutability": "view",
      "type": "function"
    },
    {
      "inputs": [],
      "name": "totalTokensBought",
      "outputs": [
        {
          "internalType": "uint256",
          "name": "",
          "type": "uint256"
        }
      ],
      "stateMutability": "view",
      "type": "function"
    },
    {
      "inputs": [],
      "name": "totalTokensForFairLaunch_wei",
      "outputs": [
        {
          "internalType": "uint256",
          "name": "",
          "type": "uint256"
        }
      ],
      "stateMutability": "view",
      "type": "function"
    },
    {
      "inputs": [],
      "name": "totalparticipants",
      "outputs": [
        {
          "internalType": "uint256",
          "name": "",
          "type": "uint256"
        }
      ],
      "stateMutability": "view",
      "type": "function"
    },
    {
      "inputs": [
        {
          "internalType": "address",
          "name": "newOwner",
          "type": "address"
        }
      ],
      "name": "transferOwnership",
      "outputs": [],
      "stateMutability": "nonpayable",
      "type": "function"
    },
    {
      "inputs": [],
      "name": "uniswapV2Router",
      "outputs": [
        {
          "internalType": "contract IUniswapV2Router02",
          "name": "",
          "type": "address"
        }
      ],
      "stateMutability": "view",
      "type": "function"
    },
    {
      "inputs": [],
      "name": "withdrawContribution",
      "outputs": [],
      "stateMutability": "nonpayable",
      "type": "function"
    },
    {
      "stateMutability": "payable",
      "type": "receive"
    }
  ],
  "bytecode": "0x60806040523480156200001157600080fd5b506200001d336200002d565b620000276200007d565b620001c0565b600080546001600160a01b038381166001600160a01b0319831681178455604051919092169283917f8be0079c531659141344cd1fd0a4f28419497f9722a3daafe3b4186f6b6457e09190a35050565b6200008960ff6200008c565b50565b60008054600160a81b900460ff161562000127578160ff166001148015620000c75750620000c530620001b160201b620016cc1760201c565b155b6200011f5760405162461bcd60e51b815260206004820152602e60248201526000805160206200260883398151915260448201526d191e481a5b9a5d1a585b1a5e995960921b60648201526084015b60405180910390fd5b506000919050565b60005460ff808416600160a01b90920416106200018d5760405162461bcd60e51b815260206004820152602e60248201526000805160206200260883398151915260448201526d191e481a5b9a5d1a585b1a5e995960921b606482015260840162000116565b506000805460ff909216600160a01b0260ff60a01b19909216919091179055600190565b6001600160a01b03163b151590565b61243880620001d06000396000f3fe60806040526004361061026b5760003560e01c80637e929f0d11610144578063bc76caec116100b6578063de284b3a1161007a578063de284b3a146106d4578063e40f2e08146106ea578063ed338ff1146106ff578063f2fde38b14610715578063f56e673e14610735578063f80f5dd51461074b5761027a565b8063bc76caec14610672578063c1a46d4314610692578063c77a435e146106a8578063d0febe4c1461027a578063dd636fd9146106be5761027a565b80639d76ea58116101085780639d76ea58146105a55780639edc6d60146105c5578063a3c3d84d146105f2578063a4475ce414610612578063a8ed02c914610632578063baa9e5311461065c5761027a565b80637e929f0d1461051d5780638a343dc7146105335780638da5cb5b14610549578063906a26e0146105675780639706a83e1461057d5761027a565b8063383f5fb2116101dd5780634bb278f3116101a15780634bb278f314610476578063603f4d521461048b578063609f546b146104b85780636d498093146104ce578063715018a6146104e857806375bacfc9146104fd5761027a565b8063383f5fb2146103de5780633d0d9c531461040b57806345f8f0df1461042b57806348c54b9d146104415780634adcd32a146104565761027a565b806316007d291161022f57806316007d291461032c5780631694505e146103425780631bbc4b83146103625780631cbaee2d146103825780632362144d1461039857806330edc0f5146103ae5761027a565b8063010998851461028257806308b3110c146102ab5780630d616d20146102c1578063120597b9146102d657806312e409c5146103165761027a565b3661027a5761027861076b565b005b61027861076b565b34801561028e57600080fd5b5061029860065481565b6040519081526020015b60405180910390f35b3480156102b757600080fd5b50610298600d5481565b3480156102cd57600080fd5b50610278610b73565b3480156102e257600080fd5b506102fe7305ff2b0db69458a0750badebc4f9e13add608c7f81565b6040516001600160a01b0390911681526020016102a2565b34801561032257600080fd5b5061029860145481565b34801561033857600080fd5b50610298600b5481565b34801561034e57600080fd5b506018546102fe906001600160a01b031681565b34801561036e57600080fd5b506016546102fe906001600160a01b031681565b34801561038e57600080fd5b5061029860035481565b3480156103a457600080fd5b5061029860055481565b3480156103ba57600080fd5b506103ce6103c9366004612052565b610c7f565b60405190151581526020016102a2565b3480156103ea57600080fd5b506102986103f9366004612052565b60196020526000908152604090205481565b34801561041757600080fd5b50610298610426366004612052565b610cef565b34801561043757600080fd5b50610298600f5481565b34801561044d57600080fd5b50610278610d6f565b34801561046257600080fd5b50610278610471366004612177565b610e20565b34801561048257600080fd5b50610278610ed4565b34801561049757600080fd5b50601c546104ab9062010000900460ff1681565b6040516102a291906121f3565b3480156104c457600080fd5b50610298600c5481565b3480156104da57600080fd5b50601c546103ce9060ff1681565b3480156104f457600080fd5b5061027861105e565b34801561050957600080fd5b5061027861051836600461206d565b611094565b34801561052957600080fd5b5061029860025481565b34801561053f57600080fd5b50610298600e5481565b34801561055557600080fd5b506000546001600160a01b03166102fe565b34801561057357600080fd5b5061029860015481565b34801561058957600080fd5b506102fe73d99d1c33f9fc3444f8101754abc46c52416550d181565b3480156105b157600080fd5b506017546102fe906001600160a01b031681565b3480156105d157600080fd5b506102986105e0366004612052565b601b6020526000908152604090205481565b3480156105fe57600080fd5b5061027861060d366004612177565b611261565b34801561061e57600080fd5b506012546102fe906001600160a01b031681565b34801561063e57600080fd5b5061064761129d565b604080519283526020830191909152016102a2565b34801561066857600080fd5b5061029860075481565b34801561067e57600080fd5b5061027861068d366004612052565b61132c565b34801561069e57600080fd5b5061029860095481565b3480156106b457600080fd5b50610298600a5481565b3480156106ca57600080fd5b5061029860105481565b3480156106e057600080fd5b5061029860135481565b3480156106f657600080fd5b50610298611546565b34801561070b57600080fd5b5061029860045481565b34801561072157600080fd5b50610278610730366004612052565b611570565b34801561074157600080fd5b5061029860085481565b34801561075757600080fd5b50610278610766366004612052565b611608565b60035434904210156107c45760405162461bcd60e51b815260206004820152601d60248201527f5468652073616c6520686173206e6f742073746172746564207965742000000060448201526064015b60405180910390fd5b60045442111561080b5760405162461bcd60e51b8152602060048201526012602482015271151a19481cd85b19481a5cc818db1bdcd95960721b60448201526064016107bb565b601c5460ff16156108715760405162461bcd60e51b815260206004820152602a60248201527f627579546f6b656e7328293a20666169724c61756e636820686173206265656e60448201526908199a5b985b1a5e995960b21b60648201526084016107bb565b6001601c5462010000900460ff166001811115610890576108906123d6565b1415610a425761089f33610c7f565b156109fa5733600090815260196020526040812080548392906108c3908490612309565b90915550506014543360009081526019602052604090205410156109175760405162461bcd60e51b815260206004820152600b60248201526a0313abcaa37b5b2b7399d160ad1b60448201526064016107bb565b6013543360009081526019602052604090205411156109935760405162461bcd60e51b815260206004820152603260248201527f627579546f6b656e733a20596f752061726520696e76657374696e67206d6f7260448201527165207468616e20796f7572206c696d69742160701b60648201526084016107bb565b80600560008282546109a59190612309565b9091555050336000908152601a602052604090205460ff166109f757336000908152601a60205260408120805460ff1916600190811790915560068054919290916109f1908490612309565b90915550505b50565b60405162461bcd60e51b815260206004820152601860248201527f4e6f20612077686974656c69737465642061646472657373000000000000000060448201526064016107bb565b6000601c5462010000900460ff166001811115610a6157610a616123d6565b14156109f7573360009081526019602052604081208054839290610a86908490612309565b9091555050601454336000908152601960205260409020541015610aec5760405162461bcd60e51b815260206004820152601f60248201527f796f75722070757263686173696e6720506f77657220697320736f204c6f770060448201526064016107bb565b6013543360009081526019602052604090205411156109935760405162461bcd60e51b815260206004820152603860248201527f627579546f6b656e733a596f752061726520696e76657374696e67206d6f726560448201527f207468616e20796f757220746965722d31206c696d697421000000000000000060648201526084016107bb565b600454421015610bde5760405162461bcd60e51b815260206004820152603060248201527f7769746864726177436f6e747269627574696f6e3a20706c656173652077616960448201526f742074696c6c2073616c6520656e647360801b60648201526084016107bb565b60025460055410610c3f5760405162461bcd60e51b815260206004820152602560248201527f43616e6e6f742077697468647261772e2053616c65204578636565647320736f604482015264066744361760dc1b60648201526084016107bb565b3360008181526019602052604080822054905190929183156108fc02918491818181858888f19350505050158015610c7b573d6000803e3d6000fd5b5050565b60155460009081905b80821015610ce557600060158381548110610ca557610ca56123ec565b6000918252602090912001546001600160a01b0390811691508516811415610cd257506001949350505050565b5081610cdd816123a5565b925050610c88565b5060009392505050565b6040516370a0823160e01b81523060048201526000906001600160a01b038316906370a082319060240160206040518083038186803b158015610d3157600080fd5b505afa158015610d45573d6000803e3d6000fd5b505050506040513d601f19601f82011682018060405250810190610d699190612190565b92915050565b601c5460ff161515600114610dec5760405162461bcd60e51b815260206004820152603d60248201527f636c61696d546f6b656e733a20557365722063616e6e6f7420636c61696d207460448201527f6f6b656e73732074696c6c2073616c652069732066696e616c697a656400000060648201526084016107bb565b6000610df66116db565b336000818152601b60205260408120556016549192506109f7916001600160a01b0316908361171e565b6000546001600160a01b03163314610e4a5760405162461bcd60e51b81526004016107bb9061229c565b801580610e575750806001145b610ea35760405162461bcd60e51b815260206004820152601960248201527f63686f6963652063616e206f6e6c792062652030206f7220310000000000000060448201526064016107bb565b80610eb75750601c805462ff000019169055565b80600114156109f75750601c805462ff0000191662010000179055565b6000546001600160a01b03163314610efe5760405162461bcd60e51b81526004016107bb9061229c565b601c5460ff1615610f5d5760405162461bcd60e51b815260206004820152602360248201527f66696e616c697a653a2070726573616c6520616c72656164792066696e616c696044820152621e995960ea1b60648201526084016107bb565b600254600554101580610f7257506004544210155b610fda5760405162461bcd60e51b815260206004820152603360248201527f66696e616c697a653a20536f6674436170206e6f742072656163686564206f72604482015272081cd85b19481a185cc81b9bdd08195b991959606a1b60648201526084016107bb565b600080600080610fe8611775565b9350935093509350610ff98161193a565b60006110058585611a0d565b6012546040519192506001600160a01b03169084156108fc029085906000818181858888f19350505050158015611040573d6000803e3d6000fd5b5061104a81611af1565b5050601c805460ff19166001179055505050565b6000546001600160a01b031633146110885760405162461bcd60e51b81526004016107bb9061229c565b6110926000611c2e565b565b60006110a06001611c7e565b905080156110bc576000805460ff60a81b1916600160a81b1790555b606084015160018190556110d890670de0b6b3a7640000612343565b60025583516003556020840151600455601280546001600160a01b038881166001600160a01b0319928316811790935561010087015160145561012087015160135561014087015160095560088890556011805491861691909216179055600f849055601c805462ff0000191690556080850151600d5560a0850151600e5560c085015160105561116890611c2e565b60408401516001600160a01b03166111c25760405162461bcd60e51b815260206004820152601c60248201527f546f6b656e20416464726573732063616e6e6f74206265205a65726f0000000060448201526064016107bb565b6040840151601780546001600160a01b039092166001600160a01b0319928316811790915560168054831690911790556018805490911673d99d1c33f9fc3444f8101754abc46c52416550d11790558015611259576000805460ff60a81b19169055604051600181527f7f26b83ff96e1f2b6a682f133852f6798a09c465da95921460cefb38474024989060200160405180910390a15b505050505050565b6000546001600160a01b0316331461128b5760405162461bcd60e51b81526004016107bb9061229c565b80600a60008282546109f19190612309565b6016546040516370a0823160e01b81523060048201526000918291479183916001600160a01b03909116906370a082319060240160206040518083038186803b1580156112e957600080fd5b505afa1580156112fd573d6000803e3d6000fd5b505050506040513d601f19601f820116820180604052508101906113219190612190565b919491935090915050565b6000546001600160a01b031633146113565760405162461bcd60e51b81526004016107bb9061229c565b601c5460ff1615156001146113d35760405162461bcd60e51b815260206004820152603f60248201527f72656465656d4c50546f6b656e3a20557365722063616e6e6f7420726564656560448201527f6d4c50546f6b656e2074696c6c2073616c652069732066696e616c697a65640060648201526084016107bb565b600a5442101561143e5760405162461bcd60e51b815260206004820152603060248201527f72656465656d4c50546f6b656e3a20506c6561736520776169742074696c6c2060448201526f7468652072656c65617365206461746560801b60648201526084016107bb565b6040516370a0823160e01b815230600482015233906000906001600160a01b038416906370a082319060240160206040518083038186803b15801561148257600080fd5b505afa158015611496573d6000803e3d6000fd5b505050506040513d601f19601f820116820180604052508101906114ba9190612190565b60405163a9059cbb60e01b81526001600160a01b038481166004830152602482018390529192509084169063a9059cbb90604401602060405180830381600087803b15801561150857600080fd5b505af115801561151c573d6000803e3d6000fd5b505050506040513d601f19601f820116820180604052508101906115409190612155565b50505050565b6000600554600954670de0b6b3a76400006115619190612343565b61156b9190612321565b905090565b6000546001600160a01b0316331461159a5760405162461bcd60e51b81526004016107bb9061229c565b6001600160a01b0381166115ff5760405162461bcd60e51b815260206004820152602660248201527f4f776e61626c653a206e6577206f776e657220697320746865207a65726f206160448201526564647265737360d01b60648201526084016107bb565b6109f781611c2e565b6000546001600160a01b031633146116325760405162461bcd60e51b81526004016107bb9061229c565b6001600160a01b03811661167a5760405162461bcd60e51b815260206004820152600f60248201526e496e76616c6964206164647265737360881b60448201526064016107bb565b601580546001810182556000919091527f55f448fdea98c4d29eb340757ef0a66cd03dbb9538908a6a81d96026b71ec4750180546001600160a01b0319166001600160a01b0392909216919091179055565b6001600160a01b03163b151590565b6000806116e6611546565b3360009081526019602052604081205491925090611705908390612343565b336000908152601b602052604090208190559392505050565b604080516001600160a01b038416602482015260448082018490528251808303909101815260649091019091526020810180516001600160e01b031663a9059cbb60e01b179052611770908490611d1e565b505050565b600080600080600e5460041415611874576000620f4240600954670de0b6b3a76400006117a29190612343565b6117ac9190612321565b90506000600d548260606117c09190612343565b6117ca9190612343565b6117d5906064612343565b90506000620f42406005546117ea9190612321565b90506000600d54826117fc9190612343565b611807906060612343565b611812906064612343565b90506000600d5460646118259190612362565b61182f9084612343565b61183a906060612343565b611845906064612343565b905060006118538383612309565b6005546118609190612362565b949950919750955091935061193492505050565b600e5460021415611934576000620f4240600954670de0b6b3a764000061189b9190612343565b6118a59190612321565b90506000600d54826103d96118ba9190612343565b6118c49190612343565b6118cf90600a612343565b90506000620f42406005546118e49190612321565b90506000600d54826118f69190612343565b611901906062612343565b61190c906064612343565b90506000600d54606461191f9190612362565b6119299084612343565b61183a906062612343565b90919293565b6011546040516001600160a01b039091169082156108fc029083906000818181858888f19350505050158015611974573d6000803e3d6000fd5b50600e54600214156109f757601654601154600f5460405163a9059cbb60e01b81526001600160a01b039283166004820152602481019190915291169063a9059cbb906044015b602060405180830381600087803b1580156119d557600080fd5b505af11580156119e9573d6000803e3d6000fd5b505050506040513d601f19601f82011682018060405250810190610c7b9190612155565b6000611a17611df0565b6018546017546000916001600160a01b039081169163f305d7199186911687858030611a454261012c612309565b60405160e089901b6001600160e01b03191681526001600160a01b039687166004820152602481019590955260448501939093526064840191909152909216608482015260a481019190915260c4016060604051808303818588803b158015611aad57600080fd5b505af1158015611ac1573d6000803e3d6000fd5b50505050506040513d601f19601f82011682018060405250810190611ae691906121a9565b509095945050505050565b6000600f5482600954670de0b6b3a7640000611b0d9190612343565b611b179190612309565b611b219190612309565b600854611b2e9190612362565b905060105460001415611bc35760165460125460405163a9059cbb60e01b81526001600160a01b0391821660048201526024810184905291169063a9059cbb90604401602060405180830381600087803b158015611b8b57600080fd5b505af1158015611b9f573d6000803e3d6000fd5b505050506040513d601f19601f820116820180604052508101906117709190612155565b60105460011415610c7b57601754604051630c2c3d6360e31b8152306004820152602481018390526001600160a01b0390911690636161eb1890604401600060405180830381600087803b158015611c1a57600080fd5b505af1158015611259573d6000803e3d6000fd5b600080546001600160a01b038381166001600160a01b0319831681178455604051919092169283917f8be0079c531659141344cd1fd0a4f28419497f9722a3daafe3b4186f6b6457e09190a35050565b60008054600160a81b900460ff1615611cc7578160ff166001148015611ca35750303b155b611cbf5760405162461bcd60e51b81526004016107bb9061224e565b506000919050565b60005460ff808416600160a01b9092041610611cf55760405162461bcd60e51b81526004016107bb9061224e565b506000805460ff909216600160a01b0260ff60a01b19909216919091179055600190565b919050565b6000611d73826040518060400160405280602081526020017f5361666545524332303a206c6f772d6c6576656c2063616c6c206661696c6564815250856001600160a01b0316611eb89092919063ffffffff16565b8051909150156117705780806020019051810190611d919190612155565b6117705760405162461bcd60e51b815260206004820152602a60248201527f5361666545524332303a204552433230206f7065726174696f6e20646964206e6044820152691bdd081cdd58d8d9595960b21b60648201526084016107bb565b6017546040516370a0823160e01b81523060048201526000916001600160a01b0316906370a082319060240160206040518083038186803b158015611e3457600080fd5b505afa158015611e48573d6000803e3d6000fd5b505050506040513d601f19601f82011682018060405250810190611e6c9190612190565b60175460405163095ea7b360e01b815273d99d1c33f9fc3444f8101754abc46c52416550d16004820152602481018390529192506001600160a01b03169063095ea7b3906044016119bb565b6060611ec78484600085611ed1565b90505b9392505050565b606082471015611f325760405162461bcd60e51b815260206004820152602660248201527f416464726573733a20696e73756666696369656e742062616c616e636520666f6044820152651c8818d85b1b60d21b60648201526084016107bb565b6001600160a01b0385163b611f895760405162461bcd60e51b815260206004820152601d60248201527f416464726573733a2063616c6c20746f206e6f6e2d636f6e747261637400000060448201526064016107bb565b600080866001600160a01b03168587604051611fa591906121d7565b60006040518083038185875af1925050503d8060008114611fe2576040519150601f19603f3d011682016040523d82523d6000602084013e611fe7565b606091505b5091509150611ff7828286612002565b979650505050505050565b60608315612011575081611eca565b8251156120215782518084602001fd5b8160405162461bcd60e51b81526004016107bb919061221b565b80356001600160a01b0381168114611d1957600080fd5b60006020828403121561206457600080fd5b611eca8261203b565b60008060008060008587036101e081121561208757600080fd5b6120908761203b565b95506020870135945061016080603f19830112156120ad57600080fd5b6120b56122d1565b915060408801358252606088013560208301526120d46080890161203b565b604083015260a0880135606083015260c0880135608083015260e088013560a08301526101008089013560c0840152610120808a013560e0850152610140808b013583860152838b0135828601526101808b01358186015250505050809350506101a086013591506121496101c0870161203b565b90509295509295909350565b60006020828403121561216757600080fd5b81518015158114611eca57600080fd5b60006020828403121561218957600080fd5b5035919050565b6000602082840312156121a257600080fd5b5051919050565b6000806000606084860312156121be57600080fd5b8351925060208401519150604084015190509250925092565b600082516121e9818460208701612379565b9190910192915050565b602081016002831061221557634e487b7160e01b600052602160045260246000fd5b91905290565b602081526000825180602084015261223a816040850160208701612379565b601f01601f19169190910160400192915050565b6020808252602e908201527f496e697469616c697a61626c653a20636f6e747261637420697320616c72656160408201526d191e481a5b9a5d1a585b1a5e995960921b606082015260800190565b6020808252818101527f4f776e61626c653a2063616c6c6572206973206e6f7420746865206f776e6572604082015260600190565b604051610160810167ffffffffffffffff8111828210171561230357634e487b7160e01b600052604160045260246000fd5b60405290565b6000821982111561231c5761231c6123c0565b500190565b60008261233e57634e487b7160e01b600052601260045260246000fd5b500490565b600081600019048311821515161561235d5761235d6123c0565b500290565b600082821015612374576123746123c0565b500390565b60005b8381101561239457818101518382015260200161237c565b838111156115405750506000910152565b60006000198214156123b9576123b96123c0565b5060010190565b634e487b7160e01b600052601160045260246000fd5b634e487b7160e01b600052602160045260246000fd5b634e487b7160e01b600052603260045260246000fdfea2646970667358221220de194a6a6ca48072d9a13ef006138a5e248df72e5ac32fb72cf8e94627157b0764736f6c63430008070033496e697469616c697a61626c653a20636f6e747261637420697320616c726561",
  "linkReferences": {},
  "deployedLinkReferences": {}
}