{
  "_format": "hh-sol-artifact-1",
  "contractName": "BUSDLaunchPad",
  "sourceName": "contracts/LaunchPad/BUSDLaunchPad.sol",
  "abi": [
    {
      "inputs": [],
      "stateMutability": "nonpayable",
      "type": "constructor"
    },
    {
      "anonymous": false,
      "inputs": [
        {
          "indexed": false,
          "internalType": "uint8",
          "name": "version",
          "type": "uint8"
        }
      ],
      "name": "Initialized",
      "type": "event"
    },
    {
      "anonymous": false,
      "inputs": [
        {
          "indexed": true,
          "internalType": "address",
          "name": "previousOwner",
          "type": "address"
        },
        {
          "indexed": true,
          "internalType": "address",
          "name": "newOwner",
          "type": "address"
        }
      ],
      "name": "OwnershipTransferred",
      "type": "event"
    },
    {
      "inputs": [],
      "name": "BUSDFee_",
      "outputs": [
        {
          "internalType": "uint256",
          "name": "",
          "type": "uint256"
        }
      ],
      "stateMutability": "view",
      "type": "function"
    },
    {
      "inputs": [],
      "name": "ERC20Interface",
      "outputs": [
        {
          "internalType": "contract IERC20",
          "name": "",
          "type": "address"
        }
      ],
      "stateMutability": "view",
      "type": "function"
    },
    {
      "inputs": [],
      "name": "LPtokenReleaseDate",
      "outputs": [
        {
          "internalType": "uint256",
          "name": "",
          "type": "uint256"
        }
      ],
      "stateMutability": "view",
      "type": "function"
    },
    {
      "inputs": [],
      "name": "PancakeRouter_Main",
      "outputs": [
        {
          "internalType": "address",
          "name": "",
          "type": "address"
        }
      ],
      "stateMutability": "view",
      "type": "function"
    },
    {
      "inputs": [],
      "name": "PancakeRouter_Test",
      "outputs": [
        {
          "internalType": "address",
          "name": "",
          "type": "address"
        }
      ],
      "stateMutability": "view",
      "type": "function"
    },
    {
      "inputs": [],
      "name": "_liquidityPercent",
      "outputs": [
        {
          "internalType": "uint256",
          "name": "",
          "type": "uint256"
        }
      ],
      "stateMutability": "view",
      "type": "function"
    },
    {
      "inputs": [],
      "name": "_listingRate",
      "outputs": [
        {
          "internalType": "uint256",
          "name": "",
          "type": "uint256"
        }
      ],
      "stateMutability": "view",
      "type": "function"
    },
    {
      "inputs": [],
      "name": "_presaleRate",
      "outputs": [
        {
          "internalType": "uint256",
          "name": "",
          "type": "uint256"
        }
      ],
      "stateMutability": "view",
      "type": "function"
    },
    {
      "inputs": [],
      "name": "_refundType",
      "outputs": [
        {
          "internalType": "uint256",
          "name": "",
          "type": "uint256"
        }
      ],
      "stateMutability": "view",
      "type": "function"
    },
    {
      "inputs": [],
      "name": "_tokensBill",
      "outputs": [
        {
          "internalType": "uint256",
          "name": "",
          "type": "uint256"
        }
      ],
      "stateMutability": "view",
      "type": "function"
    },
    {
      "inputs": [
        {
          "internalType": "address",
          "name": "_address",
          "type": "address"
        }
      ],
      "name": "addWhitelist",
      "outputs": [],
      "stateMutability": "nonpayable",
      "type": "function"
    },
    {
      "inputs": [
        {
          "internalType": "address",
          "name": "",
          "type": "address"
        }
      ],
      "name": "amountBoughtInBUSD",
      "outputs": [
        {
          "internalType": "uint256",
          "name": "",
          "type": "uint256"
        }
      ],
      "stateMutability": "view",
      "type": "function"
    },
    {
      "inputs": [
        {
          "internalType": "uint256",
          "name": "amount",
          "type": "uint256"
        }
      ],
      "name": "buyTokens",
      "outputs": [],
      "stateMutability": "nonpayable",
      "type": "function"
    },
    {
      "inputs": [],
      "name": "checkBalancesOfContract",
      "outputs": [
        {
          "internalType": "uint256",
          "name": "contractBUSDBalance",
          "type": "uint256"
        },
        {
          "internalType": "uint256",
          "name": "contractTokenBalance",
          "type": "uint256"
        }
      ],
      "stateMutability": "view",
      "type": "function"
    },
    {
      "inputs": [
        {
          "internalType": "address",
          "name": "lpToken",
          "type": "address"
        }
      ],
      "name": "checkDetailsOfLPToken",
      "outputs": [
        {
          "internalType": "uint256",
          "name": "",
          "type": "uint256"
        }
      ],
      "stateMutability": "view",
      "type": "function"
    },
    {
      "inputs": [],
      "name": "claimTokens",
      "outputs": [],
      "stateMutability": "nonpayable",
      "type": "function"
    },
    {
      "inputs": [
        {
          "internalType": "address",
          "name": "",
          "type": "address"
        }
      ],
      "name": "claimableTokenBalance",
      "outputs": [
        {
          "internalType": "uint256",
          "name": "",
          "type": "uint256"
        }
      ],
      "stateMutability": "view",
      "type": "function"
    },
    {
      "inputs": [],
      "name": "finalize",
      "outputs": [],
      "stateMutability": "nonpayable",
      "type": "function"
    },
    {
      "inputs": [
        {
          "internalType": "address",
          "name": "_address",
          "type": "address"
        }
      ],
      "name": "getWhitelist",
      "outputs": [
        {
          "internalType": "bool",
          "name": "",
          "type": "bool"
        }
      ],
      "stateMutability": "view",
      "type": "function"
    },
    {
      "inputs": [],
      "name": "hardCap",
      "outputs": [
        {
          "internalType": "uint256",
          "name": "",
          "type": "uint256"
        }
      ],
      "stateMutability": "view",
      "type": "function"
    },
    {
      "inputs": [],
      "name": "hardCap_wei",
      "outputs": [
        {
          "internalType": "uint256",
          "name": "",
          "type": "uint256"
        }
      ],
      "stateMutability": "view",
      "type": "function"
    },
    {
      "inputs": [
        {
          "internalType": "address",
          "name": "_owner_",
          "type": "address"
        },
        {
          "internalType": "uint256",
          "name": "tokensNeeded_wei",
          "type": "uint256"
        },
        {
          "components": [
            {
              "internalType": "uint256",
              "name": "_saleStartTime",
              "type": "uint256"
            },
            {
              "internalType": "uint256",
              "name": "_saleEndTime",
              "type": "uint256"
            },
            {
              "internalType": "uint256",
              "name": "_minBuyPerUser",
              "type": "uint256"
            },
            {
              "internalType": "uint256",
              "name": "_maxBuyPerUser",
              "type": "uint256"
            },
            {
              "internalType": "address",
              "name": "tokenOnSale",
              "type": "address"
            },
            {
              "internalType": "uint256",
              "name": "hardCap",
              "type": "uint256"
            },
            {
              "internalType": "uint256",
              "name": "softCap",
              "type": "uint256"
            },
            {
              "internalType": "uint256",
              "name": "presaleRate",
              "type": "uint256"
            },
            {
              "internalType": "uint256",
              "name": "listingRate",
              "type": "uint256"
            },
            {
              "internalType": "uint256",
              "name": "liquidityPercent",
              "type": "uint256"
            },
            {
              "internalType": "uint256",
              "name": "_BUSDFee",
              "type": "uint256"
            },
            {
              "internalType": "uint256",
              "name": "refundType",
              "type": "uint256"
            }
          ],
          "internalType": "struct IBUSDLaunchPad.saleInfo",
          "name": "compressedInfo",
          "type": "tuple"
        },
        {
          "internalType": "uint256",
          "name": "tokensBill",
          "type": "uint256"
        },
        {
          "internalType": "address",
          "name": "_ELaunch",
          "type": "address"
        }
      ],
      "name": "initialize",
      "outputs": [],
      "stateMutability": "nonpayable",
      "type": "function"
    },
    {
      "inputs": [],
      "name": "maxBuyPerUser",
      "outputs": [
        {
          "internalType": "uint256",
          "name": "",
          "type": "uint256"
        }
      ],
      "stateMutability": "view",
      "type": "function"
    },
    {
      "inputs": [],
      "name": "minBuyPerUser",
      "outputs": [
        {
          "internalType": "uint256",
          "name": "",
          "type": "uint256"
        }
      ],
      "stateMutability": "view",
      "type": "function"
    },
    {
      "inputs": [],
      "name": "owner",
      "outputs": [
        {
          "internalType": "address",
          "name": "",
          "type": "address"
        }
      ],
      "stateMutability": "view",
      "type": "function"
    },
    {
      "inputs": [
        {
          "internalType": "uint256",
          "name": "extraTime",
          "type": "uint256"
        }
      ],
      "name": "postponeLPReleaseDate",
      "outputs": [],
      "stateMutability": "nonpayable",
      "type": "function"
    },
    {
      "inputs": [],
      "name": "presaleFinalized",
      "outputs": [
        {
          "internalType": "bool",
          "name": "",
          "type": "bool"
        }
      ],
      "stateMutability": "view",
      "type": "function"
    },
    {
      "inputs": [],
      "name": "projectOwner",
      "outputs": [
        {
          "internalType": "address",
          "name": "",
          "type": "address"
        }
      ],
      "stateMutability": "view",
      "type": "function"
    },
    {
      "inputs": [
        {
          "internalType": "address",
          "name": "lpToken",
          "type": "address"
        }
      ],
      "name": "redeemLPToken",
      "outputs": [],
      "stateMutability": "nonpayable",
      "type": "function"
    },
    {
      "inputs": [],
      "name": "renounceOwnership",
      "outputs": [],
      "stateMutability": "nonpayable",
      "type": "function"
    },
    {
      "inputs": [],
      "name": "saleEndTime",
      "outputs": [
        {
          "internalType": "uint256",
          "name": "",
          "type": "uint256"
        }
      ],
      "stateMutability": "view",
      "type": "function"
    },
    {
      "inputs": [],
      "name": "saleStartTime",
      "outputs": [
        {
          "internalType": "uint256",
          "name": "",
          "type": "uint256"
        }
      ],
      "stateMutability": "view",
      "type": "function"
    },
    {
      "inputs": [],
      "name": "saleState",
      "outputs": [
        {
          "internalType": "enum BUSDLaunchPad.buyType",
          "name": "",
          "type": "uint8"
        }
      ],
      "stateMutability": "view",
      "type": "function"
    },
    {
      "inputs": [],
      "name": "setDefaultLPTokenReleaseDate",
      "outputs": [],
      "stateMutability": "nonpayable",
      "type": "function"
    },
    {
      "inputs": [
        {
          "internalType": "uint256",
          "name": "choice",
          "type": "uint256"
        }
      ],
      "name": "setSaleType",
      "outputs": [],
      "stateMutability": "nonpayable",
      "type": "function"
    },
    {
      "inputs": [],
      "name": "softCap",
      "outputs": [
        {
          "internalType": "uint256",
          "name": "",
          "type": "uint256"
        }
      ],
      "stateMutability": "view",
      "type": "function"
    },
    {
      "inputs": [],
      "name": "softCap_wei",
      "outputs": [
        {
          "internalType": "uint256",
          "name": "",
          "type": "uint256"
        }
      ],
      "stateMutability": "view",
      "type": "function"
    },
    {
      "inputs": [],
      "name": "tokenAddress",
      "outputs": [
        {
          "internalType": "address",
          "name": "",
          "type": "address"
        }
      ],
      "stateMutability": "view",
      "type": "function"
    },
    {
      "inputs": [],
      "name": "totalBUSDReceivedInAllTier",
      "outputs": [
        {
          "internalType": "uint256",
          "name": "",
          "type": "uint256"
        }
      ],
      "stateMutability": "view",
      "type": "function"
    },
    {
      "inputs": [],
      "name": "totalTokensBought",
      "outputs": [
        {
          "internalType": "uint256",
          "name": "",
          "type": "uint256"
        }
      ],
      "stateMutability": "view",
      "type": "function"
    },
    {
      "inputs": [],
      "name": "totalTokensToCreatePresale",
      "outputs": [
        {
          "internalType": "uint256",
          "name": "",
          "type": "uint256"
        }
      ],
      "stateMutability": "view",
      "type": "function"
    },
    {
      "inputs": [],
      "name": "totalparticipants",
      "outputs": [
        {
          "internalType": "uint256",
          "name": "",
          "type": "uint256"
        }
      ],
      "stateMutability": "view",
      "type": "function"
    },
    {
      "inputs": [
        {
          "internalType": "address",
          "name": "newOwner",
          "type": "address"
        }
      ],
      "name": "transferOwnership",
      "outputs": [],
      "stateMutability": "nonpayable",
      "type": "function"
    },
    {
      "inputs": [],
      "name": "uniswapV2Router",
      "outputs": [
        {
          "internalType": "contract IUniswapV2Router02",
          "name": "",
          "type": "address"
        }
      ],
      "stateMutability": "view",
      "type": "function"
    },
    {
      "inputs": [],
      "name": "withdrawContribution",
      "outputs": [],
      "stateMutability": "nonpayable",
      "type": "function"
    }
  ],
  "bytecode": "0x60806040523480156200001157600080fd5b506200001d336200002d565b620000276200007d565b620001c0565b600080546001600160a01b038381166001600160a01b0319831681178455604051919092169283917f8be0079c531659141344cd1fd0a4f28419497f9722a3daafe3b4186f6b6457e09190a35050565b6200008960ff6200008c565b50565b60008054600160a81b900460ff161562000127578160ff166001148015620000c75750620000c530620001b160201b620017c81760201c565b155b6200011f5760405162461bcd60e51b815260206004820152602e6024820152600080516020620027ee83398151915260448201526d191e481a5b9a5d1a585b1a5e995960921b60648201526084015b60405180910390fd5b506000919050565b60005460ff808416600160a01b90920416106200018d5760405162461bcd60e51b815260206004820152602e6024820152600080516020620027ee83398151915260448201526d191e481a5b9a5d1a585b1a5e995960921b606482015260840162000116565b506000805460ff909216600160a01b0260ff60a01b19909216919091179055600190565b6001600160a01b03163b151590565b61261e80620001d06000396000f3fe608060405234801561001057600080fd5b506004361061027f5760003560e01c80637e929f0d1161015c578063a3c3d84d116100ce578063dd636fd911610087578063dd636fd914610512578063de284b3a1461051b578063ed338ff114610524578063f2fde38b1461052d578063f80f5dd514610540578063fb86a4041461055357600080fd5b8063a3c3d84d146104aa578063a4475ce4146104bd578063a8ed02c9146104d0578063baa9e531146104ed578063bc76caec146104f6578063c77a435e1461050957600080fd5b806394bf96ac1161012057806394bf96ac146104425780639706a83e1461044a5780639c9b46f9146104655780639d76ea581461046e5780639edc6d6014610481578063a375da1d146104a157600080fd5b80637e929f0d1461040d5780638cb37ab2146104165780638da5cb5b1461041f578063906a26e014610430578063919e3b181461043957600080fd5b80633610724e116101f55780634adcd32a116101b95780634adcd32a146103b45780634bb278f3146103c7578063603f4d52146103cf578063609f546b146103ef5780636d498093146103f8578063715018a61461040557600080fd5b80633610724e1461036a5780633d0d9c531461037d578063408fc8a91461039057806345f8f0df146103a357806348c54b9d146103ac57600080fd5b806316007d291161024757806316007d29146102ef5780631694505e146102f85780631bbc4b831461030b5780631cbaee2d1461031e5780631f48a34e1461032757806330edc0f51461034757600080fd5b8063010998851461028457806308b3110c146102a05780630d616d20146102a9578063120597b9146102b357806312e409c5146102e6575b600080fd5b61028d60085481565b6040519081526020015b60405180910390f35b61028d600e5481565b6102b161055c565b005b6102ce7305ff2b0db69458a0750badebc4f9e13add608c7f81565b6040516001600160a01b039091168152602001610297565b61028d60155481565b61028d600c5481565b6019546102ce906001600160a01b031681565b6017546102ce906001600160a01b031681565b61028d60055481565b61028d610335366004612212565b601a6020526000908152604090205481565b61035a610355366004612212565b6106cd565b6040519015158152602001610297565b6102b1610378366004612344565b61073d565b61028d61038b366004612212565b610c14565b6102b161039e36600461222d565b610c94565b61028d60105481565b6102b1610e89565b6102b16103c2366004612344565b610f33565b6102b1610fe7565b601d546103e29062010000900460ff1681565b60405161029791906123d9565b61028d600d5481565b601d5461035a9060ff1681565b6102b161124a565b61028d60045481565b61028d60075481565b6000546001600160a01b03166102ce565b61028d60035481565b61028d60025481565b6102b1611280565b6102ce73d99d1c33f9fc3444f8101754abc46c52416550d181565b61028d600f5481565b6018546102ce906001600160a01b031681565b61028d61048f366004612212565b601c6020526000908152604090205481565b61028d600a5481565b6102b16104b8366004612344565b6112fc565b6013546102ce906001600160a01b031681565b6104d8611340565b60408051928352602083019190915201610297565b61028d60095481565b6102b1610504366004612212565b611455565b61028d600b5481565b61028d60115481565b61028d60145481565b61028d60065481565b6102b161053b366004612212565b61166c565b6102b161054e366004612212565b611704565b61028d60015481565b6006544210156105cc5760405162461bcd60e51b815260206004820152603060248201527f7769746864726177436f6e747269627574696f6e3a20706c656173652077616960448201526f742074696c6c2073616c6520656e647360801b60648201526084015b60405180910390fd5b6004546007541061062d5760405162461bcd60e51b815260206004820152602560248201527f43616e6e6f742077697468647261772e2053616c65204578636565647320736f604482015264066744361760dc1b60648201526084016105c3565b336000818152601a60205260409081902054905163a9059cbb60e01b8152909173ed24fc36d5ee211ea25a80239fb8c4cfd80f12ee9163a9059cbb916106779185906004016123c0565b602060405180830381600087803b15801561069157600080fd5b505af11580156106a5573d6000803e3d6000fd5b505050506040513d601f19601f820116820180604052508101906106c99190612322565b5050565b60165460009081905b80821015610733576000601683815481106106f3576106f36125d2565b6000918252602090912001546001600160a01b039081169150851681141561072057506001949350505050565b508161072b8161258b565b9250506106d6565b5060009392505050565b60055442101561078f5760405162461bcd60e51b815260206004820152601c60248201527f5468652073616c65206973206e6f74207374617274656420796574200000000060448201526064016105c3565b6006544211156107d65760405162461bcd60e51b8152602060048201526012602482015271151a19481cd85b19481a5cc818db1bdcd95960721b60448201526064016105c3565b600254816007546107e791906124ef565b111561086a5760405162461bcd60e51b815260206004820152604660248201527f627579546f6b656e733a2070757263686173652063616e6e6f7420657863656560448201527f6420686172644361702e2054727920427579696e67206120736d616c6c657220606482015265185b5bdd5b9d60d21b608482015260a4016105c3565b6001601d5462010000900460ff166001811115610889576108896125bc565b1415610ae057610898336106cd565b15610a9857336000908152601a6020526040812080548392906108bc9084906124ef565b9091555050601554336000908152601a6020526040902054101561093c5760405162461bcd60e51b815260206004820152603160248201527f627579546f6b656e733a20496e766573746d656e7420746f6f206c6974746c656044820152702e2054727920427579696e67206d6f726560781b60648201526084016105c3565b601454336000908152601a602052604090205411156109c35760405162461bcd60e51b815260206004820152603860248201527f627579546f6b656e733a20596f752061726520696e76657374696e67206d6f7260448201527f65207468616e206d617820436f6e747269627574696f6e21000000000000000060648201526084016105c3565b6109e373ed24fc36d5ee211ea25a80239fb8c4cfd80f12ee3330846117d7565b80600760008282546109f591906124ef565b9091555060009050610a0682611842565b336000908152601c6020526040812080549293508392909190610a2a9084906124ef565b925050819055508060096000828254610a4391906124ef565b9091555050336000908152601b602052604090205460ff166106c957336000908152601b60205260408120805460ff191660019081179091556008805491929091610a8f9084906124ef565b90915550505050565b60405162461bcd60e51b815260206004820152601860248201527f4e6f20612077686974656c69737465642061646472657373000000000000000060448201526064016105c3565b6000601d5462010000900460ff166001811115610aff57610aff6125bc565b1415610c1157336000908152601a602052604081208054839290610b249084906124ef565b9091555050601554336000908152601a60205260409020541015610b8a5760405162461bcd60e51b815260206004820152601f60248201527f796f75722070757263686173696e6720506f77657220697320736f204c6f770060448201526064016105c3565b601454336000908152601a602052604090205411156109c35760405162461bcd60e51b815260206004820152603860248201527f627579546f6b656e733a596f752061726520696e76657374696e67206d6f726560448201527f207468616e20796f757220746965722d31206c696d697421000000000000000060648201526084016105c3565b50565b6040516370a0823160e01b81523060048201526000906001600160a01b038316906370a082319060240160206040518083038186803b158015610c5657600080fd5b505afa158015610c6a573d6000803e3d6000fd5b505050506040513d601f19601f82011682018060405250810190610c8e919061235d565b92915050565b6000610ca06001611852565b90508015610cbc576000805460ff60a81b1916600160a81b1790555b60a08401516001819055610cd890670de0b6b3a7640000612529565b60025560c08401516003819055610cf790670de0b6b3a7640000612529565b60045583516005556020840151600655601380546001600160a01b038881166001600160a01b0319928316811790935560408701516015556060870151601455600a88905560128054918616919092161790556010849055601d805462ff00001916905560e0850151600c55610100850151600d55610120850151600e55610140850151600f55610160850151601155610d90906118f2565b60808401516001600160a01b0316610dea5760405162461bcd60e51b815260206004820152601c60248201527f546f6b656e20416464726573732063616e6e6f74206265205a65726f0000000060448201526064016105c3565b6080840151601880546001600160a01b039092166001600160a01b0319928316811790915560178054831690911790556019805490911673d99d1c33f9fc3444f8101754abc46c52416550d11790558015610e81576000805460ff60a81b19169055604051600181527f7f26b83ff96e1f2b6a682f133852f6798a09c465da95921460cefb38474024989060200160405180910390a15b505050505050565b601d5460ff161515600114610f065760405162461bcd60e51b815260206004820152603d60248201527f636c61696d546f6b656e733a20557365722063616e6e6f7420636c61696d207460448201527f6f6b656e73732074696c6c2073616c652069732066696e616c697a656400000060648201526084016105c3565b336000818152601c6020526040812080549190556017549091610c11916001600160a01b03169083611942565b6000546001600160a01b03163314610f5d5760405162461bcd60e51b81526004016105c390612482565b801580610f6a5750806001145b610fb65760405162461bcd60e51b815260206004820152601960248201527f63686f6963652063616e206f6e6c792062652030206f7220310000000000000060448201526064016105c3565b80610fca5750601d805462ff000019169055565b8060011415610c115750601d805462ff0000191662010000179055565b6000546001600160a01b031633146110115760405162461bcd60e51b81526004016105c390612482565b601d5460ff16156110705760405162461bcd60e51b815260206004820152602360248201527f66696e616c697a653a2070726573616c6520616c72656164792066696e616c696044820152621e995960ea1b60648201526084016105c3565b600254600754148061108457506006544210155b6110ec5760405162461bcd60e51b815260206004820152603360248201527f66696e616c697a653a2048617264636170206e6f742072656163686564206f72604482015272081cd85b19481a185cc81b9bdd08195b991959606a1b60648201526084016105c3565b60045460075410156111665760405162461bcd60e51b815260206004820152603e60248201527f66696e616c697a653a2050726f6a6563742063616e6e6f742070726f6365656460448201527f2073696e636520736f667463617020776173206e6f742072656163686564000060648201526084016105c3565b600080600080611174611966565b935093509350935061118581611afd565b60006111918585611bd6565b60135460405163a9059cbb60e01b815291925073ed24fc36d5ee211ea25a80239fb8c4cfd80f12ee9163a9059cbb916111da916001600160a01b039091169087906004016123c0565b602060405180830381600087803b1580156111f457600080fd5b505af1158015611208573d6000803e3d6000fd5b505050506040513d601f19601f8201168201806040525081019061122c9190612322565b5061123681611ce4565b5050601d805460ff19166001179055505050565b6000546001600160a01b031633146112745760405162461bcd60e51b81526004016105c390612482565b61127e60006118f2565b565b601d54610100900460ff16156112d85760405162461bcd60e51b815260206004820181905260248201527f44656661756c742072656c65617365206461746520616c72656164792073657460448201526064016105c3565b6006546112e890620697806124ef565b600b55601d805461ff001916610100179055565b6000546001600160a01b031633146113265760405162461bcd60e51b81526004016105c390612482565b80600b600082825461133891906124ef565b909155505050565b6040516370a0823160e01b81523060048201526000908190819073ed24fc36d5ee211ea25a80239fb8c4cfd80f12ee906370a082319060240160206040518083038186803b15801561139157600080fd5b505afa1580156113a5573d6000803e3d6000fd5b505050506040513d601f19601f820116820180604052508101906113c9919061235d565b6017546040516370a0823160e01b81523060048201529192506000916001600160a01b03909116906370a082319060240160206040518083038186803b15801561141257600080fd5b505afa158015611426573d6000803e3d6000fd5b505050506040513d601f19601f8201168201806040525081019061144a919061235d565b919491935090915050565b6000546001600160a01b0316331461147f5760405162461bcd60e51b81526004016105c390612482565b601d5460ff1615156001146114fc5760405162461bcd60e51b815260206004820152603f60248201527f72656465656d4c50546f6b656e3a20557365722063616e6e6f7420726564656560448201527f6d4c50546f6b656e2074696c6c2073616c652069732066696e616c697a65640060648201526084016105c3565b600b544210156115675760405162461bcd60e51b815260206004820152603060248201527f72656465656d4c50546f6b656e3a20506c6561736520776169742074696c6c2060448201526f7468652072656c65617365206461746560801b60648201526084016105c3565b6040516370a0823160e01b815230600482015233906000906001600160a01b038416906370a082319060240160206040518083038186803b1580156115ab57600080fd5b505afa1580156115bf573d6000803e3d6000fd5b505050506040513d601f19601f820116820180604052508101906115e3919061235d565b60405163a9059cbb60e01b81529091506001600160a01b0384169063a9059cbb9061161490859085906004016123c0565b602060405180830381600087803b15801561162e57600080fd5b505af1158015611642573d6000803e3d6000fd5b505050506040513d601f19601f820116820180604052508101906116669190612322565b50505050565b6000546001600160a01b031633146116965760405162461bcd60e51b81526004016105c390612482565b6001600160a01b0381166116fb5760405162461bcd60e51b815260206004820152602660248201527f4f776e61626c653a206e6577206f776e657220697320746865207a65726f206160448201526564647265737360d01b60648201526084016105c3565b610c11816118f2565b6000546001600160a01b0316331461172e5760405162461bcd60e51b81526004016105c390612482565b6001600160a01b0381166117765760405162461bcd60e51b815260206004820152600f60248201526e496e76616c6964206164647265737360881b60448201526064016105c3565b601680546001810182556000919091527fd833147d7dc355ba459fc788f669e58cfaf9dc25ddcd0702e87d69c7b51242890180546001600160a01b0319166001600160a01b0392909216919091179055565b6001600160a01b03163b151590565b6040516001600160a01b03808516602483015283166044820152606481018290526116669085906323b872dd60e01b906084015b60408051601f198184030181529190526020810180516001600160e01b03166001600160e01b031990931692909217909152611e0e565b6000600c5482610c8e9190612529565b60008054600160a81b900460ff161561189b578160ff1660011480156118775750303b155b6118935760405162461bcd60e51b81526004016105c390612434565b506000919050565b60005460ff808416600160a01b90920416106118c95760405162461bcd60e51b81526004016105c390612434565b506000805460ff909216600160a01b0260ff60a01b19909216919091179055600190565b919050565b600080546001600160a01b038381166001600160a01b0319831681178455604051919092169283917f8be0079c531659141344cd1fd0a4f28419497f9722a3daafe3b4186f6b6457e09190a35050565b6119618363a9059cbb60e01b848460405160240161180b9291906123c0565b505050565b600080600080600f5460041415611a47576000620f424060075461198a9190612507565b90506000600e54600d5461199e9190612529565b6119a9836060612529565b6119b39190612529565b6119be906064612529565b90506000600e54836119d09190612529565b6119db906060612529565b6119e6906064612529565b90506000600e5460646119f99190612548565b611a039085612529565b611a0e906060612529565b611a19906064612529565b90506000611a2783836124ef565b600754611a349190612548565b9398509196509450909250611af7915050565b600f5460021415611af7576000620f4240600754611a659190612507565b90506000600e54600d54611a799190612529565b611a85836103d9612529565b611a8f9190612529565b611a9a90600a612529565b90506000600e5483611aac9190612529565b611ab8906103d9612529565b611ac390600a612529565b90506000600e546064611ad69190612548565b611ae09085612529565b611aec906103d9612529565b611a1990600a612529565b90919293565b60125460405163a9059cbb60e01b815273ed24fc36d5ee211ea25a80239fb8c4cfd80f12ee9163a9059cbb91611b41916001600160a01b03169085906004016123c0565b602060405180830381600087803b158015611b5b57600080fd5b505af1158015611b6f573d6000803e3d6000fd5b505050506040513d601f19601f82011682018060405250810190611b939190612322565b50600f5460021415610c115760175460125460105460405163a9059cbb60e01b81526001600160a01b039384169363a9059cbb93610677939116916004016123c0565b6000611be0611ee0565b611be8611fa3565b6019546018546000916001600160a01b039081169163e8e33700911673ed24fc36d5ee211ea25a80239fb8c4cfd80f12ee8787868030611c2a4261012c6124ef565b60405160e08a901b6001600160e01b03191681526001600160a01b039889166004820152968816602488015260448701959095526064860193909352608485019190915260a484015290921660c482015260e481019190915261010401606060405180830381600087803b158015611ca157600080fd5b505af1158015611cb5573d6000803e3d6000fd5b505050506040513d601f19601f82011682018060405250810190611cd99190612376565b509095945050505050565b600060105482600954611cf791906124ef565b611d0191906124ef565b600a54611d0e9190612548565b905060115460001415611da35760175460135460405163a9059cbb60e01b81526001600160a01b039283169263a9059cbb92611d519291169085906004016123c0565b602060405180830381600087803b158015611d6b57600080fd5b505af1158015611d7f573d6000803e3d6000fd5b505050506040513d601f19601f820116820180604052508101906119619190612322565b601154600114156106c957601854604051630c2c3d6360e31b81526001600160a01b0390911690636161eb1890611de090309085906004016123c0565b600060405180830381600087803b158015611dfa57600080fd5b505af1158015610e81573d6000803e3d6000fd5b6000611e63826040518060400160405280602081526020017f5361666545524332303a206c6f772d6c6576656c2063616c6c206661696c6564815250856001600160a01b03166120789092919063ffffffff16565b8051909150156119615780806020019051810190611e819190612322565b6119615760405162461bcd60e51b815260206004820152602a60248201527f5361666545524332303a204552433230206f7065726174696f6e20646964206e6044820152691bdd081cdd58d8d9595960b21b60648201526084016105c3565b6018546040516370a0823160e01b81523060048201526000916001600160a01b0316906370a082319060240160206040518083038186803b158015611f2457600080fd5b505afa158015611f38573d6000803e3d6000fd5b505050506040513d601f19601f82011682018060405250810190611f5c919061235d565b60185460405163095ea7b360e01b81529192506001600160a01b03169063095ea7b3906106779073d99d1c33f9fc3444f8101754abc46c52416550d19085906004016123c0565b6040516370a0823160e01b815230600482015260009073ed24fc36d5ee211ea25a80239fb8c4cfd80f12ee906370a082319060240160206040518083038186803b158015611ff057600080fd5b505afa158015612004573d6000803e3d6000fd5b505050506040513d601f19601f82011682018060405250810190612028919061235d565b60405163095ea7b360e01b815290915073ed24fc36d5ee211ea25a80239fb8c4cfd80f12ee9063095ea7b3906106779073d99d1c33f9fc3444f8101754abc46c52416550d19085906004016123c0565b60606120878484600085612091565b90505b9392505050565b6060824710156120f25760405162461bcd60e51b815260206004820152602660248201527f416464726573733a20696e73756666696369656e742062616c616e636520666f6044820152651c8818d85b1b60d21b60648201526084016105c3565b6001600160a01b0385163b6121495760405162461bcd60e51b815260206004820152601d60248201527f416464726573733a2063616c6c20746f206e6f6e2d636f6e747261637400000060448201526064016105c3565b600080866001600160a01b0316858760405161216591906123a4565b60006040518083038185875af1925050503d80600081146121a2576040519150601f19603f3d011682016040523d82523d6000602084013e6121a7565b606091505b50915091506121b78282866121c2565b979650505050505050565b606083156121d157508161208a565b8251156121e15782518084602001fd5b8160405162461bcd60e51b81526004016105c39190612401565b80356001600160a01b03811681146118ed57600080fd5b60006020828403121561222457600080fd5b61208a826121fb565b600080600080600085870361020081121561224757600080fd5b612250876121fb565b95506020870135945061018080603f198301121561226d57600080fd5b6122756124b7565b915060408801358252606088013560208301526080880135604083015260a088013560608301526122a860c089016121fb565b608083015260e088013560a08301526101008089013560c0840152610120808a013560e0850152610140808b0135838601526101609250828b013582860152838b01358186015250506101a0890135818401525050809350506101c086013591506123166101e087016121fb565b90509295509295909350565b60006020828403121561233457600080fd5b8151801515811461208a57600080fd5b60006020828403121561235657600080fd5b5035919050565b60006020828403121561236f57600080fd5b5051919050565b60008060006060848603121561238b57600080fd5b8351925060208401519150604084015190509250925092565b600082516123b681846020870161255f565b9190910192915050565b6001600160a01b03929092168252602082015260400190565b60208101600283106123fb57634e487b7160e01b600052602160045260246000fd5b91905290565b602081526000825180602084015261242081604085016020870161255f565b601f01601f19169190910160400192915050565b6020808252602e908201527f496e697469616c697a61626c653a20636f6e747261637420697320616c72656160408201526d191e481a5b9a5d1a585b1a5e995960921b606082015260800190565b6020808252818101527f4f776e61626c653a2063616c6c6572206973206e6f7420746865206f776e6572604082015260600190565b604051610180810167ffffffffffffffff811182821017156124e957634e487b7160e01b600052604160045260246000fd5b60405290565b60008219821115612502576125026125a6565b500190565b60008261252457634e487b7160e01b600052601260045260246000fd5b500490565b6000816000190483118215151615612543576125436125a6565b500290565b60008282101561255a5761255a6125a6565b500390565b60005b8381101561257a578181015183820152602001612562565b838111156116665750506000910152565b600060001982141561259f5761259f6125a6565b5060010190565b634e487b7160e01b600052601160045260246000fd5b634e487b7160e01b600052602160045260246000fd5b634e487b7160e01b600052603260045260246000fdfea2646970667358221220accdef8672215efde8e569a0657f37326ad17a5e9f74e7ecf203be1a626b4f1d64736f6c63430008070033496e697469616c697a61626c653a20636f6e747261637420697320616c726561",
  "linkReferences": {},
  "deployedLinkReferences": {}
}