{
  "_format": "hh-sol-artifact-1",
  "contractName": "BUSDsoftLaunch",
  "sourceName": "contracts/LaunchPad/BUSDsoftLaunch.sol",
  "abi": [
    {
      "inputs": [],
      "stateMutability": "nonpayable",
      "type": "constructor"
    },
    {
      "anonymous": false,
      "inputs": [
        {
          "indexed": false,
          "internalType": "uint8",
          "name": "version",
          "type": "uint8"
        }
      ],
      "name": "Initialized",
      "type": "event"
    },
    {
      "anonymous": false,
      "inputs": [
        {
          "indexed": true,
          "internalType": "address",
          "name": "previousOwner",
          "type": "address"
        },
        {
          "indexed": true,
          "internalType": "address",
          "name": "newOwner",
          "type": "address"
        }
      ],
      "name": "OwnershipTransferred",
      "type": "event"
    },
    {
      "inputs": [],
      "name": "BUSDFee_",
      "outputs": [
        {
          "internalType": "uint256",
          "name": "",
          "type": "uint256"
        }
      ],
      "stateMutability": "view",
      "type": "function"
    },
    {
      "inputs": [],
      "name": "ERC20Interface",
      "outputs": [
        {
          "internalType": "contract IERC20",
          "name": "",
          "type": "address"
        }
      ],
      "stateMutability": "view",
      "type": "function"
    },
    {
      "inputs": [],
      "name": "LPtokenReleaseDate",
      "outputs": [
        {
          "internalType": "uint256",
          "name": "",
          "type": "uint256"
        }
      ],
      "stateMutability": "view",
      "type": "function"
    },
    {
      "inputs": [],
      "name": "PancakeRouter_Main",
      "outputs": [
        {
          "internalType": "address",
          "name": "",
          "type": "address"
        }
      ],
      "stateMutability": "view",
      "type": "function"
    },
    {
      "inputs": [],
      "name": "PancakeRouter_Test",
      "outputs": [
        {
          "internalType": "address",
          "name": "",
          "type": "address"
        }
      ],
      "stateMutability": "view",
      "type": "function"
    },
    {
      "inputs": [],
      "name": "_liquidityPercent",
      "outputs": [
        {
          "internalType": "uint256",
          "name": "",
          "type": "uint256"
        }
      ],
      "stateMutability": "view",
      "type": "function"
    },
    {
      "inputs": [],
      "name": "_listingRate",
      "outputs": [
        {
          "internalType": "uint256",
          "name": "",
          "type": "uint256"
        }
      ],
      "stateMutability": "view",
      "type": "function"
    },
    {
      "inputs": [],
      "name": "_presaleRate",
      "outputs": [
        {
          "internalType": "uint256",
          "name": "",
          "type": "uint256"
        }
      ],
      "stateMutability": "view",
      "type": "function"
    },
    {
      "inputs": [],
      "name": "_refundType",
      "outputs": [
        {
          "internalType": "uint256",
          "name": "",
          "type": "uint256"
        }
      ],
      "stateMutability": "view",
      "type": "function"
    },
    {
      "inputs": [],
      "name": "_tokensBill",
      "outputs": [
        {
          "internalType": "uint256",
          "name": "",
          "type": "uint256"
        }
      ],
      "stateMutability": "view",
      "type": "function"
    },
    {
      "inputs": [
        {
          "internalType": "address",
          "name": "_address",
          "type": "address"
        }
      ],
      "name": "addWhitelist",
      "outputs": [],
      "stateMutability": "nonpayable",
      "type": "function"
    },
    {
      "inputs": [
        {
          "internalType": "address",
          "name": "",
          "type": "address"
        }
      ],
      "name": "amountBoughtInBUSD",
      "outputs": [
        {
          "internalType": "uint256",
          "name": "",
          "type": "uint256"
        }
      ],
      "stateMutability": "view",
      "type": "function"
    },
    {
      "inputs": [
        {
          "internalType": "uint256",
          "name": "amount",
          "type": "uint256"
        }
      ],
      "name": "buyTokens",
      "outputs": [],
      "stateMutability": "nonpayable",
      "type": "function"
    },
    {
      "inputs": [],
      "name": "calculateFairlaunchRate",
      "outputs": [
        {
          "internalType": "uint256",
          "name": "",
          "type": "uint256"
        }
      ],
      "stateMutability": "view",
      "type": "function"
    },
    {
      "inputs": [],
      "name": "checkBalancesOfContract",
      "outputs": [
        {
          "internalType": "uint256",
          "name": "contractBUSDBalance",
          "type": "uint256"
        },
        {
          "internalType": "uint256",
          "name": "contractTokenBalance",
          "type": "uint256"
        }
      ],
      "stateMutability": "view",
      "type": "function"
    },
    {
      "inputs": [
        {
          "internalType": "address",
          "name": "lpToken",
          "type": "address"
        }
      ],
      "name": "checkDetailsOfLPToken",
      "outputs": [
        {
          "internalType": "uint256",
          "name": "",
          "type": "uint256"
        }
      ],
      "stateMutability": "view",
      "type": "function"
    },
    {
      "inputs": [],
      "name": "claimTokens",
      "outputs": [],
      "stateMutability": "nonpayable",
      "type": "function"
    },
    {
      "inputs": [
        {
          "internalType": "address",
          "name": "",
          "type": "address"
        }
      ],
      "name": "claimableTokenBalance",
      "outputs": [
        {
          "internalType": "uint256",
          "name": "",
          "type": "uint256"
        }
      ],
      "stateMutability": "view",
      "type": "function"
    },
    {
      "inputs": [],
      "name": "finalize",
      "outputs": [],
      "stateMutability": "nonpayable",
      "type": "function"
    },
    {
      "inputs": [
        {
          "internalType": "address",
          "name": "_address",
          "type": "address"
        }
      ],
      "name": "getWhitelist",
      "outputs": [
        {
          "internalType": "bool",
          "name": "",
          "type": "bool"
        }
      ],
      "stateMutability": "view",
      "type": "function"
    },
    {
      "inputs": [
        {
          "internalType": "address",
          "name": "_owner_",
          "type": "address"
        },
        {
          "internalType": "uint256",
          "name": "tokensNeeded_wei",
          "type": "uint256"
        },
        {
          "components": [
            {
              "internalType": "uint256",
              "name": "_saleStartTime",
              "type": "uint256"
            },
            {
              "internalType": "uint256",
              "name": "_saleEndTime",
              "type": "uint256"
            },
            {
              "internalType": "address",
              "name": "tokenOnSale",
              "type": "address"
            },
            {
              "internalType": "uint256",
              "name": "softCap",
              "type": "uint256"
            },
            {
              "internalType": "uint256",
              "name": "liquidityPercent",
              "type": "uint256"
            },
            {
              "internalType": "uint256",
              "name": "_BUSDFee",
              "type": "uint256"
            },
            {
              "internalType": "uint256",
              "name": "refundType",
              "type": "uint256"
            },
            {
              "internalType": "uint256",
              "name": "liquidityReleaseDate",
              "type": "uint256"
            },
            {
              "internalType": "uint256",
              "name": "minBuyPerUser",
              "type": "uint256"
            },
            {
              "internalType": "uint256",
              "name": "maxBuyPerUser",
              "type": "uint256"
            },
            {
              "internalType": "uint256",
              "name": "sumOfTokensOnSale",
              "type": "uint256"
            }
          ],
          "internalType": "struct IBUSDsoftLaunch.saleInfo",
          "name": "compressedInfo",
          "type": "tuple"
        },
        {
          "internalType": "uint256",
          "name": "tokensBill",
          "type": "uint256"
        },
        {
          "internalType": "address",
          "name": "_ELaunch",
          "type": "address"
        }
      ],
      "name": "initialize",
      "outputs": [],
      "stateMutability": "nonpayable",
      "type": "function"
    },
    {
      "inputs": [],
      "name": "maxBuyPerUser",
      "outputs": [
        {
          "internalType": "uint256",
          "name": "",
          "type": "uint256"
        }
      ],
      "stateMutability": "view",
      "type": "function"
    },
    {
      "inputs": [],
      "name": "minBuyPerUser",
      "outputs": [
        {
          "internalType": "uint256",
          "name": "",
          "type": "uint256"
        }
      ],
      "stateMutability": "view",
      "type": "function"
    },
    {
      "inputs": [],
      "name": "owner",
      "outputs": [
        {
          "internalType": "address",
          "name": "",
          "type": "address"
        }
      ],
      "stateMutability": "view",
      "type": "function"
    },
    {
      "inputs": [
        {
          "internalType": "uint256",
          "name": "extraTime",
          "type": "uint256"
        }
      ],
      "name": "postponeLPReleaseDate",
      "outputs": [],
      "stateMutability": "nonpayable",
      "type": "function"
    },
    {
      "inputs": [],
      "name": "presaleFinalized",
      "outputs": [
        {
          "internalType": "bool",
          "name": "",
          "type": "bool"
        }
      ],
      "stateMutability": "view",
      "type": "function"
    },
    {
      "inputs": [],
      "name": "projectOwner",
      "outputs": [
        {
          "internalType": "address",
          "name": "",
          "type": "address"
        }
      ],
      "stateMutability": "view",
      "type": "function"
    },
    {
      "inputs": [
        {
          "internalType": "address",
          "name": "lpToken",
          "type": "address"
        }
      ],
      "name": "redeemLPToken",
      "outputs": [],
      "stateMutability": "nonpayable",
      "type": "function"
    },
    {
      "inputs": [],
      "name": "renounceOwnership",
      "outputs": [],
      "stateMutability": "nonpayable",
      "type": "function"
    },
    {
      "inputs": [],
      "name": "saleEndTime",
      "outputs": [
        {
          "internalType": "uint256",
          "name": "",
          "type": "uint256"
        }
      ],
      "stateMutability": "view",
      "type": "function"
    },
    {
      "inputs": [],
      "name": "saleStartTime",
      "outputs": [
        {
          "internalType": "uint256",
          "name": "",
          "type": "uint256"
        }
      ],
      "stateMutability": "view",
      "type": "function"
    },
    {
      "inputs": [],
      "name": "saleState",
      "outputs": [
        {
          "internalType": "enum BUSDsoftLaunch.buyType",
          "name": "",
          "type": "uint8"
        }
      ],
      "stateMutability": "view",
      "type": "function"
    },
    {
      "inputs": [
        {
          "internalType": "uint256",
          "name": "choice",
          "type": "uint256"
        }
      ],
      "name": "setSaleType",
      "outputs": [],
      "stateMutability": "nonpayable",
      "type": "function"
    },
    {
      "inputs": [],
      "name": "softCap",
      "outputs": [
        {
          "internalType": "uint256",
          "name": "",
          "type": "uint256"
        }
      ],
      "stateMutability": "view",
      "type": "function"
    },
    {
      "inputs": [],
      "name": "softCap_wei",
      "outputs": [
        {
          "internalType": "uint256",
          "name": "",
          "type": "uint256"
        }
      ],
      "stateMutability": "view",
      "type": "function"
    },
    {
      "inputs": [],
      "name": "tokenAddress",
      "outputs": [
        {
          "internalType": "address",
          "name": "",
          "type": "address"
        }
      ],
      "stateMutability": "view",
      "type": "function"
    },
    {
      "inputs": [],
      "name": "totalBUSDReceivedInAllTier",
      "outputs": [
        {
          "internalType": "uint256",
          "name": "",
          "type": "uint256"
        }
      ],
      "stateMutability": "view",
      "type": "function"
    },
    {
      "inputs": [],
      "name": "totalTokensBeingSold",
      "outputs": [
        {
          "internalType": "uint256",
          "name": "",
          "type": "uint256"
        }
      ],
      "stateMutability": "view",
      "type": "function"
    },
    {
      "inputs": [],
      "name": "totalTokensForFairLaunch_wei",
      "outputs": [
        {
          "internalType": "uint256",
          "name": "",
          "type": "uint256"
        }
      ],
      "stateMutability": "view",
      "type": "function"
    },
    {
      "inputs": [],
      "name": "totalparticipants",
      "outputs": [
        {
          "internalType": "uint256",
          "name": "",
          "type": "uint256"
        }
      ],
      "stateMutability": "view",
      "type": "function"
    },
    {
      "inputs": [
        {
          "internalType": "address",
          "name": "newOwner",
          "type": "address"
        }
      ],
      "name": "transferOwnership",
      "outputs": [],
      "stateMutability": "nonpayable",
      "type": "function"
    },
    {
      "inputs": [],
      "name": "uniswapV2Router",
      "outputs": [
        {
          "internalType": "contract IUniswapV2Router02",
          "name": "",
          "type": "address"
        }
      ],
      "stateMutability": "view",
      "type": "function"
    },
    {
      "inputs": [],
      "name": "withdrawContribution",
      "outputs": [],
      "stateMutability": "nonpayable",
      "type": "function"
    }
  ],
  "bytecode": "0x60806040523480156200001157600080fd5b506200001d336200002d565b620000276200007d565b620001c0565b600080546001600160a01b038381166001600160a01b0319831681178455604051919092169283917f8be0079c531659141344cd1fd0a4f28419497f9722a3daafe3b4186f6b6457e09190a35050565b6200008960ff6200008c565b50565b60008054600160a81b900460ff161562000127578160ff166001148015620000c75750620000c530620001b160201b620016221760201c565b155b6200011f5760405162461bcd60e51b815260206004820152602e6024820152600080516020620026af83398151915260448201526d191e481a5b9a5d1a585b1a5e995960921b60648201526084015b60405180910390fd5b506000919050565b60005460ff808416600160a01b90920416106200018d5760405162461bcd60e51b815260206004820152602e6024820152600080516020620026af83398151915260448201526d191e481a5b9a5d1a585b1a5e995960921b606482015260840162000116565b506000805460ff909216600160a01b0260ff60a01b19909216919091179055600190565b6001600160a01b03163b151590565b6124df80620001d06000396000f3fe608060405234801561001057600080fd5b50600436106102695760003560e01c806375bacfc911610151578063a8ed02c9116100c3578063de284b3a11610087578063de284b3a146104eb578063e40f2e08146104f4578063ed338ff1146104fc578063f2fde38b14610505578063f56e673e14610518578063f80f5dd51461052157600080fd5b8063a8ed02c9146104a0578063bc76caec146104bd578063c1a46d43146104d0578063c77a435e146104d9578063dd636fd9146104e257600080fd5b80639706a83e116101155780639706a83e146104235780639c9b46f91461043e5780639d76ea58146104475780639edc6d601461045a578063a3c3d84d1461047a578063a4475ce41461048d57600080fd5b806375bacfc9146103e45780637e929f0d146103f75780638cb37ab2146104005780638da5cb5b14610409578063906a26e01461041a57600080fd5b806330edc0f5116101ea5780634adcd32a116101ae5780634adcd32a1461038b5780634bb278f31461039e578063603f4d52146103a6578063609f546b146103c65780636d498093146103cf578063715018a6146103dc57600080fd5b806330edc0f5146103315780633610724e146103545780633d0d9c531461036757806345f8f0df1461037a57806348c54b9d1461038357600080fd5b806316007d291161023157806316007d29146102d95780631694505e146102e25780631bbc4b83146102f55780631cbaee2d146103085780631f48a34e1461031157600080fd5b8063010998851461026e57806308b3110c1461028a5780630d616d2014610293578063120597b91461029d57806312e409c5146102d0575b600080fd5b61027760065481565b6040519081526020015b60405180910390f35b610277600c5481565b61029b610534565b005b6102b87305ff2b0db69458a0750badebc4f9e13add608c7f81565b6040516001600160a01b039091168152602001610281565b61027760135481565b610277600a5481565b6017546102b8906001600160a01b031681565b6015546102b8906001600160a01b031681565b61027760035481565b61027761031f3660046120e0565b60186020526000908152604090205481565b61034461033f3660046120e0565b6106a5565b6040519015158152602001610281565b61029b610362366004612205565b610715565b6102776103753660046120e0565b610b62565b610277600e5481565b61029b610be2565b61029b610399366004612205565b610c93565b61029b610d47565b601b546103b99062010000900460ff1681565b604051610281919061229a565b610277600b5481565b601b546103449060ff1681565b61029b610f31565b61029b6103f23660046120fb565b610f67565b61027760025481565b61027760055481565b6000546001600160a01b03166102b8565b61027760015481565b6102b873d99d1c33f9fc3444f8101754abc46c52416550d181565b610277600d5481565b6016546102b8906001600160a01b031681565b6102776104683660046120e0565b601a6020526000908152604090205481565b61029b610488366004612205565b611134565b6011546102b8906001600160a01b031681565b6104a8611170565b60408051928352602083019190915201610281565b61029b6104cb3660046120e0565b611285565b61027760085481565b61027760095481565b610277600f5481565b61027760125481565b61027761149c565b61027760045481565b61029b6105133660046120e0565b6114c6565b61027760075481565b61029b61052f3660046120e0565b61155e565b6004544210156105a45760405162461bcd60e51b815260206004820152603060248201527f7769746864726177436f6e747269627574696f6e3a20706c656173652077616960448201526f742074696c6c2073616c6520656e647360801b60648201526084015b60405180910390fd5b600254600554106106055760405162461bcd60e51b815260206004820152602560248201527f43616e6e6f742077697468647261772e2053616c65204578636565647320736f604482015264066744361760dc1b606482015260840161059b565b336000818152601860205260409081902054905163a9059cbb60e01b8152909173ed24fc36d5ee211ea25a80239fb8c4cfd80f12ee9163a9059cbb9161064f918590600401612281565b602060405180830381600087803b15801561066957600080fd5b505af115801561067d573d6000803e3d6000fd5b505050506040513d601f19601f820116820180604052508101906106a191906121e3565b5050565b60145460009081905b8082101561070b576000601483815481106106cb576106cb612493565b6000918252602090912001546001600160a01b03908116915085168114156106f857506001949350505050565b50816107038161244c565b9250506106ae565b5060009392505050565b6003544210156107675760405162461bcd60e51b815260206004820152601d60248201527f5468652073616c6520686173206e6f7420737461727465642079657420000000604482015260640161059b565b6004544211156107ae5760405162461bcd60e51b8152602060048201526012602482015271151a19481cd85b19481a5cc818db1bdcd95960721b604482015260640161059b565b601b5460ff16156108145760405162461bcd60e51b815260206004820152602a60248201527f627579546f6b656e7328293a20666169724c61756e636820686173206265656e60448201526908199a5b985b1a5e995960b21b606482015260840161059b565b6001601b5462010000900460ff1660018111156108335761083361247d565b1415610a3157610842336106a5565b156109e95733600090815260186020526040812080548392906108669084906123b0565b90915550506013543360009081526018602052604090205410156108e65760405162461bcd60e51b815260206004820152603160248201527f627579546f6b656e733a20496e766573746d656e7420746f6f206c6974746c656044820152702e2054727920427579696e67206d6f726560781b606482015260840161059b565b6012543360009081526018602052604090205411156109625760405162461bcd60e51b815260206004820152603260248201527f627579546f6b656e733a20596f752061726520696e76657374696e67206d6f7260448201527165207468616e20796f7572206c696d69742160701b606482015260840161059b565b61098273ed24fc36d5ee211ea25a80239fb8c4cfd80f12ee333084611631565b806005600082825461099491906123b0565b90915550503360009081526019602052604090205460ff166109e657336000908152601960205260408120805460ff1916600190811790915560068054919290916109e09084906123b0565b90915550505b50565b60405162461bcd60e51b815260206004820152601860248201527f4e6f20612077686974656c697374656420616464726573730000000000000000604482015260640161059b565b6000601b5462010000900460ff166001811115610a5057610a5061247d565b14156109e6573360009081526018602052604081208054839290610a759084906123b0565b9091555050601354336000908152601860205260409020541015610adb5760405162461bcd60e51b815260206004820152601f60248201527f796f75722070757263686173696e6720506f77657220697320736f204c6f7700604482015260640161059b565b6012543360009081526018602052604090205411156109625760405162461bcd60e51b815260206004820152603860248201527f627579546f6b656e733a596f752061726520696e76657374696e67206d6f726560448201527f207468616e20796f757220746965722d31206c696d6974210000000000000000606482015260840161059b565b6040516370a0823160e01b81523060048201526000906001600160a01b038316906370a082319060240160206040518083038186803b158015610ba457600080fd5b505afa158015610bb8573d6000803e3d6000fd5b505050506040513d601f19601f82011682018060405250810190610bdc919061221e565b92915050565b601b5460ff161515600114610c5f5760405162461bcd60e51b815260206004820152603d60248201527f636c61696d546f6b656e733a20557365722063616e6e6f7420636c61696d207460448201527f6f6b656e73732074696c6c2073616c652069732066696e616c697a6564000000606482015260840161059b565b6000610c6961169c565b336000818152601a60205260408120556015549192506109e6916001600160a01b031690836116df565b6000546001600160a01b03163314610cbd5760405162461bcd60e51b815260040161059b90612343565b801580610cca5750806001145b610d165760405162461bcd60e51b815260206004820152601960248201527f63686f6963652063616e206f6e6c792062652030206f72203100000000000000604482015260640161059b565b80610d2a5750601b805462ff000019169055565b80600114156109e65750601b805462ff0000191662010000179055565b6000546001600160a01b03163314610d715760405162461bcd60e51b815260040161059b90612343565b601b5460ff1615610dd05760405162461bcd60e51b815260206004820152602360248201527f66696e616c697a653a2070726573616c6520616c72656164792066696e616c696044820152621e995960ea1b606482015260840161059b565b600254600554101580610de557506004544210155b610e4d5760405162461bcd60e51b815260206004820152603360248201527f66696e616c697a653a20536f6674436170206e6f742072656163686564206f72604482015272081cd85b19481a185cc81b9bdd08195b991959606a1b606482015260840161059b565b600080600080610e5b611703565b9350935093509350610e6c816118c8565b6000610e7885856119a1565b60115460405163a9059cbb60e01b815291925073ed24fc36d5ee211ea25a80239fb8c4cfd80f12ee9163a9059cbb91610ec1916001600160a01b03909116908790600401612281565b602060405180830381600087803b158015610edb57600080fd5b505af1158015610eef573d6000803e3d6000fd5b505050506040513d601f19601f82011682018060405250810190610f1391906121e3565b50610f1d81611aaf565b5050601b805460ff19166001179055505050565b6000546001600160a01b03163314610f5b5760405162461bcd60e51b815260040161059b90612343565b610f656000611bec565b565b6000610f736001611c3c565b90508015610f8f576000805460ff60a81b1916600160a81b1790555b60608401516001819055610fab90670de0b6b3a76400006123ea565b60025583516003556020840151600455601180546001600160a01b038881166001600160a01b0319928316811790935561010087015160135561012087015160125561014087015160085560078890556010805491861691909216179055600e849055601b805462ff0000191690556080850151600c5560a0850151600d5560c0850151600f5561103b90611bec565b60408401516001600160a01b03166110955760405162461bcd60e51b815260206004820152601c60248201527f546f6b656e20416464726573732063616e6e6f74206265205a65726f00000000604482015260640161059b565b6040840151601680546001600160a01b039092166001600160a01b0319928316811790915560158054831690911790556017805490911673d99d1c33f9fc3444f8101754abc46c52416550d1179055801561112c576000805460ff60a81b19169055604051600181527f7f26b83ff96e1f2b6a682f133852f6798a09c465da95921460cefb38474024989060200160405180910390a15b505050505050565b6000546001600160a01b0316331461115e5760405162461bcd60e51b815260040161059b90612343565b80600960008282546109e091906123b0565b6040516370a0823160e01b81523060048201526000908190819073ed24fc36d5ee211ea25a80239fb8c4cfd80f12ee906370a082319060240160206040518083038186803b1580156111c157600080fd5b505afa1580156111d5573d6000803e3d6000fd5b505050506040513d601f19601f820116820180604052508101906111f9919061221e565b6015546040516370a0823160e01b81523060048201529192506000916001600160a01b03909116906370a082319060240160206040518083038186803b15801561124257600080fd5b505afa158015611256573d6000803e3d6000fd5b505050506040513d601f19601f8201168201806040525081019061127a919061221e565b919491935090915050565b6000546001600160a01b031633146112af5760405162461bcd60e51b815260040161059b90612343565b601b5460ff16151560011461132c5760405162461bcd60e51b815260206004820152603f60248201527f72656465656d4c50546f6b656e3a20557365722063616e6e6f7420726564656560448201527f6d4c50546f6b656e2074696c6c2073616c652069732066696e616c697a656400606482015260840161059b565b6009544210156113975760405162461bcd60e51b815260206004820152603060248201527f72656465656d4c50546f6b656e3a20506c6561736520776169742074696c6c2060448201526f7468652072656c65617365206461746560801b606482015260840161059b565b6040516370a0823160e01b815230600482015233906000906001600160a01b038416906370a082319060240160206040518083038186803b1580156113db57600080fd5b505afa1580156113ef573d6000803e3d6000fd5b505050506040513d601f19601f82011682018060405250810190611413919061221e565b60405163a9059cbb60e01b81529091506001600160a01b0384169063a9059cbb906114449085908590600401612281565b602060405180830381600087803b15801561145e57600080fd5b505af1158015611472573d6000803e3d6000fd5b505050506040513d601f19601f8201168201806040525081019061149691906121e3565b50505050565b6000600554600854670de0b6b3a76400006114b791906123ea565b6114c191906123c8565b905090565b6000546001600160a01b031633146114f05760405162461bcd60e51b815260040161059b90612343565b6001600160a01b0381166115555760405162461bcd60e51b815260206004820152602660248201527f4f776e61626c653a206e6577206f776e657220697320746865207a65726f206160448201526564647265737360d01b606482015260840161059b565b6109e681611bec565b6000546001600160a01b031633146115885760405162461bcd60e51b815260040161059b90612343565b6001600160a01b0381166115d05760405162461bcd60e51b815260206004820152600f60248201526e496e76616c6964206164647265737360881b604482015260640161059b565b601480546001810182556000919091527fce6d7b5282bd9a3661ae061feed1dbda4e52ab073b1f9285be6e155d9c38d4ec0180546001600160a01b0319166001600160a01b0392909216919091179055565b6001600160a01b03163b151590565b6040516001600160a01b03808516602483015283166044820152606481018290526114969085906323b872dd60e01b906084015b60408051601f198184030181529190526020810180516001600160e01b03166001600160e01b031990931692909217909152611cdc565b6000806116a761149c565b33600090815260186020526040812054919250906116c69083906123ea565b336000908152601a602052604090208190559392505050565b6116fe8363a9059cbb60e01b8484604051602401611665929190612281565b505050565b600080600080600d5460041415611802576000620f4240600854670de0b6b3a764000061173091906123ea565b61173a91906123c8565b90506000600c5482606061174e91906123ea565b61175891906123ea565b6117639060646123ea565b90506000620f424060055461177891906123c8565b90506000600c548261178a91906123ea565b6117959060606123ea565b6117a09060646123ea565b90506000600c5460646117b39190612409565b6117bd90846123ea565b6117c89060606123ea565b6117d39060646123ea565b905060006117e183836123b0565b6005546117ee9190612409565b94995091975095509193506118c292505050565b600d54600214156118c2576000620f4240600854670de0b6b3a764000061182991906123ea565b61183391906123c8565b90506000600c54826103d961184891906123ea565b61185291906123ea565b61185d90600a6123ea565b90506000620f424060055461187291906123c8565b90506000600c548261188491906123ea565b61188f9060626123ea565b61189a9060646123ea565b90506000600c5460646118ad9190612409565b6118b790846123ea565b6117c89060626123ea565b90919293565b60105460405163a9059cbb60e01b815273ed24fc36d5ee211ea25a80239fb8c4cfd80f12ee9163a9059cbb9161190c916001600160a01b0316908590600401612281565b602060405180830381600087803b15801561192657600080fd5b505af115801561193a573d6000803e3d6000fd5b505050506040513d601f19601f8201168201806040525081019061195e91906121e3565b50600d54600214156109e657601554601054600e5460405163a9059cbb60e01b81526001600160a01b039384169363a9059cbb9361064f93911691600401612281565b60006119ab611dae565b6119b3611e71565b6017546016546000916001600160a01b039081169163e8e33700911673ed24fc36d5ee211ea25a80239fb8c4cfd80f12ee87878680306119f54261012c6123b0565b60405160e08a901b6001600160e01b03191681526001600160a01b039889166004820152968816602488015260448701959095526064860193909352608485019190915260a484015290921660c482015260e481019190915261010401606060405180830381600087803b158015611a6c57600080fd5b505af1158015611a80573d6000803e3d6000fd5b505050506040513d601f19601f82011682018060405250810190611aa49190612237565b509095945050505050565b6000600e5482600854670de0b6b3a7640000611acb91906123ea565b611ad591906123b0565b611adf91906123b0565b600754611aec9190612409565b9050600f5460001415611b815760155460115460405163a9059cbb60e01b81526001600160a01b039283169263a9059cbb92611b2f929116908590600401612281565b602060405180830381600087803b158015611b4957600080fd5b505af1158015611b5d573d6000803e3d6000fd5b505050506040513d601f19601f820116820180604052508101906116fe91906121e3565b600f54600114156106a157601654604051630c2c3d6360e31b81526001600160a01b0390911690636161eb1890611bbe9030908590600401612281565b600060405180830381600087803b158015611bd857600080fd5b505af115801561112c573d6000803e3d6000fd5b600080546001600160a01b038381166001600160a01b0319831681178455604051919092169283917f8be0079c531659141344cd1fd0a4f28419497f9722a3daafe3b4186f6b6457e09190a35050565b60008054600160a81b900460ff1615611c85578160ff166001148015611c615750303b155b611c7d5760405162461bcd60e51b815260040161059b906122f5565b506000919050565b60005460ff808416600160a01b9092041610611cb35760405162461bcd60e51b815260040161059b906122f5565b506000805460ff909216600160a01b0260ff60a01b19909216919091179055600190565b919050565b6000611d31826040518060400160405280602081526020017f5361666545524332303a206c6f772d6c6576656c2063616c6c206661696c6564815250856001600160a01b0316611f469092919063ffffffff16565b8051909150156116fe5780806020019051810190611d4f91906121e3565b6116fe5760405162461bcd60e51b815260206004820152602a60248201527f5361666545524332303a204552433230206f7065726174696f6e20646964206e6044820152691bdd081cdd58d8d9595960b21b606482015260840161059b565b6016546040516370a0823160e01b81523060048201526000916001600160a01b0316906370a082319060240160206040518083038186803b158015611df257600080fd5b505afa158015611e06573d6000803e3d6000fd5b505050506040513d601f19601f82011682018060405250810190611e2a919061221e565b60165460405163095ea7b360e01b81529192506001600160a01b03169063095ea7b39061064f9073d99d1c33f9fc3444f8101754abc46c52416550d1908590600401612281565b6040516370a0823160e01b815230600482015260009073ed24fc36d5ee211ea25a80239fb8c4cfd80f12ee906370a082319060240160206040518083038186803b158015611ebe57600080fd5b505afa158015611ed2573d6000803e3d6000fd5b505050506040513d601f19601f82011682018060405250810190611ef6919061221e565b60405163095ea7b360e01b815290915073ed24fc36d5ee211ea25a80239fb8c4cfd80f12ee9063095ea7b39061064f9073d99d1c33f9fc3444f8101754abc46c52416550d1908590600401612281565b6060611f558484600085611f5f565b90505b9392505050565b606082471015611fc05760405162461bcd60e51b815260206004820152602660248201527f416464726573733a20696e73756666696369656e742062616c616e636520666f6044820152651c8818d85b1b60d21b606482015260840161059b565b6001600160a01b0385163b6120175760405162461bcd60e51b815260206004820152601d60248201527f416464726573733a2063616c6c20746f206e6f6e2d636f6e7472616374000000604482015260640161059b565b600080866001600160a01b031685876040516120339190612265565b60006040518083038185875af1925050503d8060008114612070576040519150601f19603f3d011682016040523d82523d6000602084013e612075565b606091505b5091509150612085828286612090565b979650505050505050565b6060831561209f575081611f58565b8251156120af5782518084602001fd5b8160405162461bcd60e51b815260040161059b91906122c2565b80356001600160a01b0381168114611cd757600080fd5b6000602082840312156120f257600080fd5b611f58826120c9565b60008060008060008587036101e081121561211557600080fd5b61211e876120c9565b95506020870135945061016080603f198301121561213b57600080fd5b612143612378565b91506040880135825260608801356020830152612162608089016120c9565b604083015260a0880135606083015260c0880135608083015260e088013560a08301526101008089013560c0840152610120808a013560e0850152610140808b013583860152838b0135828601526101808b01358186015250505050809350506101a086013591506121d76101c087016120c9565b90509295509295909350565b6000602082840312156121f557600080fd5b81518015158114611f5857600080fd5b60006020828403121561221757600080fd5b5035919050565b60006020828403121561223057600080fd5b5051919050565b60008060006060848603121561224c57600080fd5b8351925060208401519150604084015190509250925092565b60008251612277818460208701612420565b9190910192915050565b6001600160a01b03929092168252602082015260400190565b60208101600283106122bc57634e487b7160e01b600052602160045260246000fd5b91905290565b60208152600082518060208401526122e1816040850160208701612420565b601f01601f19169190910160400192915050565b6020808252602e908201527f496e697469616c697a61626c653a20636f6e747261637420697320616c72656160408201526d191e481a5b9a5d1a585b1a5e995960921b606082015260800190565b6020808252818101527f4f776e61626c653a2063616c6c6572206973206e6f7420746865206f776e6572604082015260600190565b604051610160810167ffffffffffffffff811182821017156123aa57634e487b7160e01b600052604160045260246000fd5b60405290565b600082198211156123c3576123c3612467565b500190565b6000826123e557634e487b7160e01b600052601260045260246000fd5b500490565b600081600019048311821515161561240457612404612467565b500290565b60008282101561241b5761241b612467565b500390565b60005b8381101561243b578181015183820152602001612423565b838111156114965750506000910152565b600060001982141561246057612460612467565b5060010190565b634e487b7160e01b600052601160045260246000fd5b634e487b7160e01b600052602160045260246000fd5b634e487b7160e01b600052603260045260246000fdfea2646970667358221220f10196812b9e7d579c76847fe11dac07057e88d510ce6019b8ac3b5b6fc2632264736f6c63430008070033496e697469616c697a61626c653a20636f6e747261637420697320616c726561",
  "linkReferences": {},
  "deployedLinkReferences": {}
}