{
  "_format": "hh-sol-artifact-1",
  "contractName": "BUSDsoftLaunchFactory",
  "sourceName": "contracts/factories/softLaunch/BUSDsoftLaunchFactory.sol",
  "abi": [
    {
      "inputs": [
        {
          "internalType": "address",
          "name": "implementation_",
          "type": "address"
        }
      ],
      "stateMutability": "nonpayable",
      "type": "constructor"
    },
    {
      "anonymous": false,
      "inputs": [
        {
          "indexed": true,
          "internalType": "address",
          "name": "previousOwner",
          "type": "address"
        },
        {
          "indexed": true,
          "internalType": "address",
          "name": "newOwner",
          "type": "address"
        }
      ],
      "name": "OwnershipTransferred",
      "type": "event"
    },
    {
      "anonymous": false,
      "inputs": [
        {
          "indexed": true,
          "internalType": "address",
          "name": "owner",
          "type": "address"
        },
        {
          "indexed": false,
          "internalType": "address",
          "name": "presaleAddress",
          "type": "address"
        }
      ],
      "name": "presaleCreated",
      "type": "event"
    },
    {
      "inputs": [
        {
          "internalType": "uint256",
          "name": "_saleStartTime",
          "type": "uint256"
        },
        {
          "internalType": "uint256",
          "name": "_saleEndTime",
          "type": "uint256"
        },
        {
          "internalType": "address",
          "name": "tokenOnSale",
          "type": "address"
        },
        {
          "internalType": "uint256",
          "name": "softCap",
          "type": "uint256"
        },
        {
          "internalType": "uint256",
          "name": "liquidityPercent",
          "type": "uint256"
        },
        {
          "internalType": "uint256",
          "name": "_BUSDFee",
          "type": "uint256"
        },
        {
          "internalType": "uint256",
          "name": "refundType",
          "type": "uint256"
        },
        {
          "internalType": "uint256",
          "name": "totalTokensForSale",
          "type": "uint256"
        },
        {
          "internalType": "uint256",
          "name": "liquidityReleaseDate",
          "type": "uint256"
        },
        {
          "internalType": "uint256",
          "name": "minBuyPerUser",
          "type": "uint256"
        },
        {
          "internalType": "uint256",
          "name": "maxBuyPerUser",
          "type": "uint256"
        }
      ],
      "name": "create",
      "outputs": [],
      "stateMutability": "payable",
      "type": "function"
    },
    {
      "inputs": [],
      "name": "feeTo",
      "outputs": [
        {
          "internalType": "address",
          "name": "",
          "type": "address"
        }
      ],
      "stateMutability": "view",
      "type": "function"
    },
    {
      "inputs": [],
      "name": "flatFee",
      "outputs": [
        {
          "internalType": "uint256",
          "name": "",
          "type": "uint256"
        }
      ],
      "stateMutability": "view",
      "type": "function"
    },
    {
      "inputs": [],
      "name": "implementation",
      "outputs": [
        {
          "internalType": "address",
          "name": "",
          "type": "address"
        }
      ],
      "stateMutability": "view",
      "type": "function"
    },
    {
      "inputs": [],
      "name": "owner",
      "outputs": [
        {
          "internalType": "address",
          "name": "",
          "type": "address"
        }
      ],
      "stateMutability": "view",
      "type": "function"
    },
    {
      "inputs": [],
      "name": "renounceOwnership",
      "outputs": [],
      "stateMutability": "nonpayable",
      "type": "function"
    },
    {
      "inputs": [
        {
          "internalType": "address",
          "name": "feeReceivingAddress",
          "type": "address"
        }
      ],
      "name": "setFeeTo",
      "outputs": [],
      "stateMutability": "nonpayable",
      "type": "function"
    },
    {
      "inputs": [
        {
          "internalType": "uint256",
          "name": "fee",
          "type": "uint256"
        }
      ],
      "name": "setFlatFee",
      "outputs": [],
      "stateMutability": "nonpayable",
      "type": "function"
    },
    {
      "inputs": [
        {
          "internalType": "address",
          "name": "implementation_",
          "type": "address"
        }
      ],
      "name": "setImplementation",
      "outputs": [],
      "stateMutability": "nonpayable",
      "type": "function"
    },
    {
      "inputs": [
        {
          "internalType": "address",
          "name": "newOwner",
          "type": "address"
        }
      ],
      "name": "transferOwnership",
      "outputs": [],
      "stateMutability": "nonpayable",
      "type": "function"
    }
  ],
  "bytecode": "0x608060405234801561001057600080fd5b50604051610fda380380610fda83398101604081905261002f916100c7565b8061003933610077565b60018055600280546001600160a01b039092166001600160a01b0319928316179055600380549091163317905550662386f26fc100006004556100f7565b600080546001600160a01b038381166001600160a01b0319831681178455604051919092169283917f8be0079c531659141344cd1fd0a4f28419497f9722a3daafe3b4186f6b6457e09190a35050565b6000602082840312156100d957600080fd5b81516001600160a01b03811681146100f057600080fd5b9392505050565b610ed4806101066000396000f3fe6080604052600436106100915760003560e01c80638da5cb5b116100595780638da5cb5b1461013d578063d784d4261461015b578063d9eb59471461017b578063f2fde38b1461019f578063f46901ed146101bf57600080fd5b8063017e7e58146100965780631c4e3f1f146100d357806323fa495a146100e85780635c60da1b14610108578063715018a614610128575b600080fd5b3480156100a257600080fd5b506003546100b6906001600160a01b031681565b6040516001600160a01b0390911681526020015b60405180910390f35b6100e66100e1366004610ce8565b6101df565b005b3480156100f457600080fd5b506100e6610103366004610ccf565b6104a1565b34801561011457600080fd5b506002546100b6906001600160a01b031681565b34801561013457600080fd5b506100e66104d0565b34801561014957600080fd5b506000546001600160a01b03166100b6565b34801561016757600080fd5b506100e6610176366004610c92565b610506565b34801561018757600080fd5b5061019160045481565b6040519081526020016100ca565b3480156101ab57600080fd5b506100e66101ba366004610c92565b610552565b3480156101cb57600080fd5b506100e66101da366004610c92565b6105ed565b6004543410156102215760405162461bcd60e51b8152602060048201526008602482015267466c61742066656560c01b60448201526064015b60405180910390fd5b600260015414156102745760405162461bcd60e51b815260206004820152601f60248201527f5265656e7472616e637947756172643a207265656e7472616e742063616c6c006044820152606401610218565b6002600155610281610639565b60008061028f888a88610662565b915091508c6005600001819055508b6005600101819055508a600560020160006101000a8154816001600160a01b0302191690836001600160a01b03160217905550896005600301819055508860056004018190555087600580018190555086600560060181905550846005600701819055508360056008018190555082600560090181905550856005600a0181905550610353600454600360009054906101000a90046001600160a01b03166001600160a01b03166107ac90919063ffffffff16565b60025460009061036b906001600160a01b03166108ca565b6003546040516375bacfc960e01b815233600482015260248101869052600554604482015260065460648201526007546001600160a01b03908116608483015260085460a483015260095460c4830152600a5460e4830152600b54610104830152600c54610124830152600d54610144830152600e54610164830152600f546101848301526101a482018690529182166101c48201529192508216906375bacfc9906101e401600060405180830381600087803b15801561042b57600080fd5b505af115801561043f573d6000803e3d6000fd5b5050505061044f338d8386610967565b6040516001600160a01b038216815233907f6d4094e1271ad24183ff32552b1cd3822e57a80177a25e2941ab2fa226172e0b9060200160405180910390a2505060018055505050505050505050505050565b6000546001600160a01b031633146104cb5760405162461bcd60e51b815260040161021890610db7565b600455565b6000546001600160a01b031633146104fa5760405162461bcd60e51b815260040161021890610db7565b6105046000610982565b565b6000546001600160a01b031633146105305760405162461bcd60e51b815260040161021890610db7565b600280546001600160a01b0319166001600160a01b0392909216919091179055565b6000546001600160a01b0316331461057c5760405162461bcd60e51b815260040161021890610db7565b6001600160a01b0381166105e15760405162461bcd60e51b815260206004820152602660248201527f4f776e61626c653a206e6577206f776e657220697320746865207a65726f206160448201526564647265737360d01b6064820152608401610218565b6105ea81610982565b50565b6000546001600160a01b031633146106175760405162461bcd60e51b815260040161021890610db7565b600380546001600160a01b0319166001600160a01b0392909216919091179055565b6000610650600454346109d290919063ffffffff16565b905080156105ea576105ea33826107ac565b60008084600214806106745750846004145b6106c05760405162461bcd60e51b815260206004820152601e60248201527f5f42555344466565206d757374206569746865722062652032206f72203400006044820152606401610218565b846004141561071f576000846106d7856060610e26565b6106e19190610e26565b6106f190655af3107a4000610e26565b9050600061070785670de0b6b3a7640000610e26565b6107119083610dec565b9350600092506107a4915050565b84600214156107a457600084610736856062610e26565b6107409190610e26565b61075090655af3107a4000610e26565b9050600061076685670de0b6b3a7640000610e26565b6107709083610dec565b905060006103e861078283600f610e26565b61078c9190610e04565b90506107988183610dec565b945092506107a4915050565b935093915050565b804710156107fc5760405162461bcd60e51b815260206004820152601d60248201527f416464726573733a20696e73756666696369656e742062616c616e63650000006044820152606401610218565b6000826001600160a01b03168260405160006040518083038185875af1925050503d8060008114610849576040519150601f19603f3d011682016040523d82523d6000602084013e61084e565b606091505b50509050806108c55760405162461bcd60e51b815260206004820152603a60248201527f416464726573733a20756e61626c6520746f2073656e642076616c75652c207260448201527f6563697069656e74206d617920686176652072657665727465640000000000006064820152608401610218565b505050565b6000604051733d602d80600a3d3981f3363d3d373d3d3d363d7360601b81528260601b60148201526e5af43d82803e903d91602b57fd5bf360881b60288201526037816000f09150506001600160a01b0381166109625760405162461bcd60e51b8152602060048201526016602482015275115490cc4c4d8dce8818dc99585d194819985a5b195960521b6044820152606401610218565b919050565b61097c6001600160a01b0384168584846109e5565b50505050565b600080546001600160a01b038381166001600160a01b0319831681178455604051919092169283917f8be0079c531659141344cd1fd0a4f28419497f9722a3daafe3b4186f6b6457e09190a35050565b60006109de8284610e45565b9392505050565b604080516001600160a01b038581166024830152848116604483015260648083018590528351808403909101815260849092018352602080830180516001600160e01b03166323b872dd60e01b17905283518085019094528084527f5361666545524332303a206c6f772d6c6576656c2063616c6c206661696c65649084015261097c92879291600091610a7d918516908490610afa565b8051909150156108c55780806020019051810190610a9b9190610cad565b6108c55760405162461bcd60e51b815260206004820152602a60248201527f5361666545524332303a204552433230206f7065726174696f6e20646964206e6044820152691bdd081cdd58d8d9595960b21b6064820152608401610218565b6060610b098484600085610b11565b949350505050565b606082471015610b725760405162461bcd60e51b815260206004820152602660248201527f416464726573733a20696e73756666696369656e742062616c616e636520666f6044820152651c8818d85b1b60d21b6064820152608401610218565b6001600160a01b0385163b610bc95760405162461bcd60e51b815260206004820152601d60248201527f416464726573733a2063616c6c20746f206e6f6e2d636f6e74726163740000006044820152606401610218565b600080866001600160a01b03168587604051610be59190610d68565b60006040518083038185875af1925050503d8060008114610c22576040519150601f19603f3d011682016040523d82523d6000602084013e610c27565b606091505b5091509150610c37828286610c42565b979650505050505050565b60608315610c515750816109de565b825115610c615782518084602001fd5b8160405162461bcd60e51b81526004016102189190610d84565b80356001600160a01b038116811461096257600080fd5b600060208284031215610ca457600080fd5b6109de82610c7b565b600060208284031215610cbf57600080fd5b815180151581146109de57600080fd5b600060208284031215610ce157600080fd5b5035919050565b60008060008060008060008060008060006101608c8e031215610d0a57600080fd5b8b359a5060208c01359950610d2160408d01610c7b565b9a9d999c50999a60608101359a5060808101359960a0820135995060c0820135985060e0820135975061010082013596506101208201359550610140909101359350915050565b60008251610d7a818460208701610e5c565b9190910192915050565b6020815260008251806020840152610da3816040850160208701610e5c565b601f01601f19169190910160400192915050565b6020808252818101527f4f776e61626c653a2063616c6c6572206973206e6f7420746865206f776e6572604082015260600190565b60008219821115610dff57610dff610e88565b500190565b600082610e2157634e487b7160e01b600052601260045260246000fd5b500490565b6000816000190483118215151615610e4057610e40610e88565b500290565b600082821015610e5757610e57610e88565b500390565b60005b83811015610e77578181015183820152602001610e5f565b8381111561097c5750506000910152565b634e487b7160e01b600052601160045260246000fdfea2646970667358221220d61f78e803cd9c4fc93a4241e91af5b231d8d5906557adfbff3d5063ed69ff8a64736f6c63430008070033",
  "linkReferences": {},
  "deployedLinkReferences": {}
}